:020000040800F2
:10000000880A0020890400089D0200089F02000859
:10001000A3020008A7020008AB02000800000000CD
:10002000000000000000000000000000AF02000817
:10003000B102000800000000B3020008B502000889
:10004000A3040008A3040008A3040008A3040008F4
:10005000A3040008A3040008A3040008A3040008E4
:10006000A3040008A3040008A3040008A3040008D4
:10007000A3040008A3040008A3040008A3040008C4
:10008000A3040008A3040008A3040008A3040008B4
:10009000B7020008A3040008A3040008A304000892
:1000A000A3040008A3040008A3040008A304000894
:1000B000A30400084328000819270008A304000827
:1000C000A3040008A3040008A3040008A304000874
:1000D000A3040008012C0008A3040008A3040008DE
:1000E000A3040008A3040008A304000800F002F819
:1000F00000F05AF80AA090E8000C82448344AAF168
:100100000107DA4501D100F04FF8AFF2090EBAE865
:100110000F0013F0010F18BFFB1A43F0010318473B
:1001200018490000384900000A444FF0000C10F84C
:10013000013B13F0070408BF10F8014B1D1108BF65
:1001400010F8015B641E05D010F8016B641E01F805
:10015000016BF9D113F0080F1EBF10F8014BAD1C55
:100160000C1B09D16D1E58BF01F801CBFAD505E073
:1001700014F8016B01F8016B6D1EF9D59142D6D3CD
:10018000704700000023002400250026103A28BFF5
:1001900078C1FBD8520728BF30C148BF0B607047F9
:1001A0001FB51FBD10B510BD04F0BDFB1146FFF714
:1001B000F7FF00F02EF804F0DBFB03B4FFF7F2FFCB
:1001C00003BC04F0DFFB000010B50446012104204D
:1001D00001F0CEF83CB12948006880B220F002005E
:1001E0002649086014E02548006880B240F002000B
:1001F000224908602248006820F47F2020490860D6
:100200000846006840F44C30086000201D49086032
:1002100010BD50201C49087102F008FD02F00CFDD1
:100220000020FFF7D1FF4FF4967002F041FD01204E
:10023000FFF7CAFF04F07CF804F062F803F0DEFA7E
:100240004FF4165002F088FC02F06CFB05230E4AB6
:100250000E490F4802F010FC04230E4A0E490C48C8
:100260003C3802F042FC0A483C3802F066FC472168
:1002700042F20F7002F0F6F900BFFEE7405C00406A
:1002800004080140B0012142000000200438014070
:1002900044000240060000204C240140704700BF8B
:1002A000FEE700BFFEE700BFFEE700BFFEE77047C6
:1002B00070477047704710B504F0D4F810BD0000C7
:1002C00000210020674A126842F48032654B1A60B0
:1002D00000BF644A126802F40030491C10B9B1F53D
:1002E000A06FF6D15F4A126812F4003F01D00120DE
:1002F00000E00020012842D15B4A126842F010025F
:10030000594B1A601A46126822F003021A601A4604
:10031000126842F002021A60524A5268514B5A6007
:100320001A4652685A601A46526842F480625A600D
:100330001A46526822F47C125A601A46526842F4F5
:10034000E8125A601A46126842F080721A6000BFC2
:10035000444A126812F0007FFAD0424A526822F0F2
:100360000302404B5A601A46526842F002025A6039
:1003700000BF3C4A526802F00C02082AF9D17047CB
:1003800010B5FFF79DFF10BD10B53648006840F06E
:100390000100344908600846406834490840314942
:1003A000486008460068324908402E4908600846FF
:1003B000006820F4802008600846406820F4FE00B1
:1003C00048604FF41F008860FFF7DAFF4FF00060CD
:1003D0002849086010BD10B5002100200022214BE3
:1003E0005B6803F00C0121B1042906D0082928D14B
:1003F00007E0214B214C236027E01F4B1F4C23605B
:1004000023E0184B5B6803F47010164B5B6803F431
:100410008032022303EB904022B9194B4343174C1F
:1004200023600DE00F4B5B6813F4003F04D0144BC6
:100430004343124C236003E00F4B43430F4C2360B4
:1004400003E00D4B0D4C236000BF00BF054B5B6804
:10045000C3F303130B4CE15C084B1B68CB40074C08
:10046000236010BD00100240002002400000FFF891
:10047000FFFFF6FE08ED00E000127A0010000020F9
:1004800000093D0014000020094880470948004742
:10049000FEE7FEE7FEE7FEE7FEE7FEE7FEE7FEE734
:1004A000FEE7FEE704480549054A064B7047000091
:1004B00089030008ED00000888040020880A002055
:1004C000880600208806002031490143314A116026
:1004D000704770B5002100230F22C4780CB32D4C57
:1004E000246804F4E064C4F5E064210AC1F1040363
:1004F000CA40447804FA03F1847814402143090186
:10050000254C0678A155047804F01F050124AC4061
:1005100005786D114FF0E02606EB8505C5F8004122
:1005200009E0047804F01F050124AC401B4D067857
:10053000761145F8264070BD194A0A400243154B12
:100540001B1F1A60704739B1124A121D126802430C
:10055000104B1B1D1A6006E00E4A121D12688243E2
:100560000C4B1B1D1A607047042808D14FF0E02186
:10057000096941F004014FF0E022116107E04FF0FA
:10058000E021096921F004014FF0E0221161704778
:100590000000FA050CED00E000E400E080E100E07E
:1005A00080FFFF1F10B50446F948844208D101219D
:1005B000401500F0F7FE0021601500F0F3FE17E093
:1005C000F448844208D10121001500F0EBFE00211F
:1005D000201500F0E7FE0BE0EF48844208D101212E
:1005E000C80300F0DFFE00214FF4004000F0DAFE07
:1005F00010BD30B50246002000235068E74C204073
:100600000D790C6844EA0524204350609068E44C5E
:100610002040D1E902542C434D7944EA450420435B
:100620009060D06A20F470000C7C641EE4B2234316
:1006300040EA0350D06230BD002101600171417178
:100640008160C16001210174704721B1826842F06C
:100650000102826003E0826822F00102826070473A
:1006600021B1826842F48072826003E0826822F4E1
:1006700080728260704710B50023CBB21AB1446813
:100680001C43446002E044689C43446010BD8168A0
:1006900041F0080181607047014600208A6812F02D
:1006A000080F01D0012000E000207047816841F070
:1006B000040181607047014600208A6812F0040F2F
:1006C00001D0012000E00020704721B1826842F48F
:1006D000A002826003E0826822F4A0028260704778
:1006E000014600208A6812F4800F01D0012000E04A
:1006F0000020704710B50A4600210023416821F40C
:100700006041531E41EA4331416010BD21B142684E
:1007100042F40062426003E0426822F400624260F8
:100720007047F0B504460D4600200021092D11DD6B
:10073000E068A5F10A0606EB4607072606FA07F168
:100740008843A5F10A0606EB460603FA06F10843BC
:10075000E0600CE0206905EB4507072606FA07F183
:10076000884305EB450603FA06F108432061072A92
:100770000FDA606B561E06EB86071F2606FA07F196
:100780008843561E06EB860605FA06F108436063A9
:1007900022E00D2A0FDA206BD61F06EB86071F26F4
:1007A00006FA07F18843D61F06EB860605FA06F11E
:1007B0000843206310E0E06AA2F10D0606EB86070D
:1007C0001F2606FA07F18843A2F10D0606EB8606FE
:1007D00005FA06F10843E062F0BD21B1826842F4F7
:1007E0008012826003E0826822F480128260704787
:1007F0000146C86C80B2704765484C30006870474D
:1008000021B1426842F48062426003E0426822F40F
:1008100080624260704721B1426842F48052426077
:1008200003E0426822F48052426070470A46002189
:10083000816821F4E04111438160704721B18268F1
:1008400042F40042826003E0826822F40042826047
:10085000704721B1826842F40212826003E082682C
:1008600022F4021282607047014600208A6812F466
:10087000001F01D0012000E000207047F0B50446C1
:100880001546002000220026092911DDE068A1F1AB
:100890000A0707EB470C072707FA0CF29043A1F170
:1008A0000A0707EB470703FA07F21043E0600CE082
:1008B000206901EB410C072707FA0CF2904301EB8A
:1008C000410703FA07F210432061A06BC0F3015601
:1008D000EF1C06F1010CA7EB0C0707EB870C1F2799
:1008E00007FA0CF29043EF1C06F1010CA7EB0C0782
:1008F00007EB870701FA07F21043A063F0BD10B5BC
:100900000A4600210023816B21F44011531E41EA65
:100910000351816310BD10B5002303460B441A60D8
:1009200010BD02460023134601F128000344186855
:1009300080B270470A46002141681A4B19401143A2
:10094000416070474162826270470A4600214168F7
:1009500021F01F0111434160704740B10C4908313B
:10096000096841F400010A4A0832116007E00849A9
:100970000831096821F40001054A08321160704706
:100980000246002013680B420ED001200DE000004B
:100990000024014000280140003C0140FFFEF0FF20
:1009A000FDF7F1FFFFFD3FFF00207047CA430260E3
:1009B000704770B502460020002300240B125568D2
:1009C000CEB205EA060415681D4202D00CB1012022
:1009D00000E0002070BD00220A12D343036070477C
:1009E00001684FF6FE721140016000210160416014
:1009F0008160C1608C49884208D18B4908394968B7
:100A000041F00F01884A083A51608AE08649143162
:100A1000884208D184490839496841F0F001824A86
:100A2000083A51607DE080492831884208D17E49EA
:100A30000839496841F470617B4A083A516070E0B6
:100A400079493C31884208D177490839496841F4ED
:100A50007041754A083A516063E0734950318842E9
:100A600008D171490839496841F470216E4A083A41
:100A7000516056E06C496431884208D16A490839AE
:100A8000496841F47001684A083A516049E0664992
:100A90007831884208D164490839496841F0706169
:100AA000614A083A51603CE06049884206D1011F22
:100AB000096841F00F01021F116032E05B491431F7
:100AC000884208D15949091F096841F0F001574A85
:100AD000121F116025E055492831884208D1534939
:100AE000091F096841F47061504A121F116018E033
:100AF0004E493C31884208D14C49091F096841F4EC
:100B000070414A4A121F11600BE048495031884237
:100B100007D14649091F096841F47021434A121F51
:100B20001160704710B50022026847F6F0739A43CF
:100B30000C6A8B6823430C6923434C6923438C69FB
:100B40002343CC6923434C6A23438C6A23431A43CF
:100B50000260CB6843600B6883604B68C36010BD64
:100B60000021016041608160C1600161416181617A
:100B7000C161016241628162704721B1026842F045
:100B80000102026004E002684FF6FE731A40026040
:100B900070471AB103680B43036002E003688B439C
:100BA00003607047416070470146486880B27047F3
:100BB00001460020002211F0805F03D01B4B083B50
:100BC0001A6802E0184B083B1A680A4201D001205B
:100BD00000E00020704710F0805F03D01349091F28
:100BE000086002E01049083948607047014600205B
:100BF000002211F0805F03D00C4B083B1A6802E022
:100C0000094B083B1A680A4201D0012000E000208D
:100C1000704710F0805F03D00449091F086002E0AC
:100C20000149083948607047080002400804024042
:100C3000002044490860091D0860091D0860091D5D
:100C4000086041483F4914310860704700213D4920
:100C50008279002A3AD00A46126803689A430B4602
:100C60001A600A1D126803689A430B1D1A60027904
:100C700011440A6803681A430A60324A083212684B
:100C800003689A432F4B08331A601A1D12680368D1
:100C90009A432C4B0C331A604279102A0ED11A1F3A
:100CA000126803681A43274B08331A601A1D12682A
:100CB00003681A43234B0C331A600DE02149427933
:100CC00011440A6803681A430A6005E00279114476
:100CD0000A6803689A430A60704700210160017145
:100CE0000C2141710021817170471649103109684A
:100CF0000143144A10321160704701460020114A26
:100D0000143212680A4201D0012000E0002070472E
:100D10000C49143108607047014600200022094B3D
:100D20001B6803EA0102074B14331B680B4202D015
:100D30000AB1012000E00020704702491431086028
:100D40007047000000040140FFFF0F0010B504468B
:100D5000CA48844208D10121042000F023FB00216D
:100D6000042000F01FFB46E0C548844208D1012161
:100D7000082000F017FB0021082000F013FB3AE0E8
:100D8000C048844208D10121102000F00BFB002153
:100D9000102000F007FB2EE0BB48844208D101215F
:100DA000202000F0FFFA0021202000F0FBFA22E0D2
:100DB000B648844208D10121402000F0F3FA002116
:100DC000402000F0EFFA16E0B148844208D101213A
:100DD000802000F0E7FA0021802000F0E3FA0AE02A
:100DE000AC48844207D10121801500F0DBFA0021D4
:100DF000A01500F0D7FA10BD10B50121084600F08B
:100E0000D1FA0021012000F0CDFA10BD2DE9F0410A
:100E1000024600250026002000230024002791F828
:100E200003C00CF00F0591F803C01CF0100F03D0A5
:100E300091F802C04CEA050591F800C0BCF1000F22
:100E400031D0146800202BE04FF0010C0CFA00F3B5
:100E5000B1F800C00CEA03069E4220D183004FF097
:100E60000F0C0CFA03F7BC4305FA03FC4CEA04042C
:100E700091F803C0BCF1280F06D14FF0010C0CFA19
:100E800000FCC2F814C00AE091F803C0BCF1480F9E
:100E900005D14FF0010C0CFA00FCC2F810C0401C48
:100EA0000828D1D31460B1F800C0BCF1FF0F34DDC5
:100EB000546800202EE000F1080C4FF0010808FAF9
:100EC0000CF3B1F800C00CEA03069E4221D1830066
:100ED0004FF00F0C0CFA03F7BC4305FA03FC4CEA85
:100EE000040491F803C0BCF1280F05D100F1080CEF
:100EF00008FA0CF8C2F8148091F803C0BCF1480F4E
:100F000007D100F1080C4FF0010808FA0CF8C2F8FC
:100F10001080401C0828CED35460BDE8F0814FF605
:100F2000FF710180022181700421C1707047024667
:100F3000002093680B4201D0012000E000207047A0
:100F40000146886880B2704702460020D3680B4291
:100F500001D0012000E0002070470146C86880B23F
:100F6000704701617047416170470AB1016100E05B
:100F700041617047C16070474FF480320A4382611B
:100F80008161826182698269704702460020424B1A
:100F900018684FF68073184040EA021008433E4B31
:100FA000186070473D49C8617047F0B50A46002394
:100FB00000240021002500F00046B6F1004F02D1C8
:100FC000354EF16901E0344E7168C0F3034583B2D8
:100FD00000F44016B6F5401F08D121F070612E4E86
:100FE000766826F070662C4F7E6012E000F4801662
:100FF000B6F5801F06D1032606FA05F4A14341F099
:10100000706106E0460D360103FA06F6B14341F081
:10101000706122B1460D360103FA06F6314300F045
:101020000046B6F1004F02D11B4EF16101E01A4EAD
:101030007160F0BD30B500228B071C0F0F2303FA3F
:1010400004F2154B08338C1053F824309343124CA0
:1010500008348D1044F8253023468C1053F8243082
:101060008C07240F00FA04F423430B4C08348D1032
:1010700044F8253030BD0A49086070470008014037
:10108000000C014000100140001401400018014014
:10109000001C0140002001400000014000002042EF
:1010A000DC002042DB48006840F00100D9490860BC
:1010B00008464068D8490840D64948600846006854
:1010C000D6490840D34908600846006820F48020CB
:1010D00008600846406820F4FE0048604FF41F0096
:1010E00088607047CB49096821F48031C94A116092
:1010F0001146096821F480211160B0F5803F03D0CA
:10110000B0F5802F0ED106E0C249096841F4803164
:10111000C04A116007E0BF49096841F4A021BD4AF7
:10112000116000E000BF00BF704710B5014600220B
:10113000002300204A11012A02D1B64C236806E0A0
:10114000022A02D1B34C236A01E0B24C636A01F077
:101150001F02012494401C4201D0012000E0002025
:1011600010BD70B500240025002600BF3120FFF718
:10117000DCFF0646641CB4F5A06F01D0002EF5D04C
:101180003120FFF7D2FF08B1012500E000252846F5
:1011900070BD014600209F4A106820F0F80040EA28
:1011A000C100106070479E490860704702460020E9
:1011B000984B586820F47C1042EA01031843954B81
:1011C0005860704796490866704701460020914A6A
:1011D000506820F003000843506070478D48406815
:1011E00000F00C007047014600208A4A506820F049
:1011F000F00008435060704701460020854A50685F
:1012000020F4E06008435060704701460020814AA6
:10121000506820F4605040EAC1005060704729B126
:101220007C4A527A02437B4B5A7204E0794A527AE2
:101230008243784B5A7270477A490860704701467A
:101240000020744A506820F44040084350607047C2
:101250000021754A11706F4A82F82010012802D0CF
:10126000042808D103E001216F4A117004E0052130
:101270006D4A117000E000BF00BF70476B49086005
:1012800070476449096A0143624A116270476749BD
:1012900044390860704730B5002100220024002343
:1012A0005C4D6D6805F00C0121B1042905D00829B9
:1012B00023D105E05E4D056022E05D4D05601FE035
:1012C000544D6D6805F47012524D6D6805F480340C
:1012D000022505EB92421CB9564D554305600BE0C3
:1012E0004C4D6D6815F4003F03D0524D55430560D9
:1012F00002E04F4D5543056002E04D4D056000BFD3
:1013000000BF444D6D6805F0F00109094A4D6B5C62
:101310000568DD4045603F4D6D6805F4E061090AF0
:10132000454D6B5C4568DD4085603A4D6D6805F460
:101330006051C90A404D6B5C4568DD40C560354D64
:101340006D6805F44041890B3C4D6B5CC568B5FB8D
:10135000F3F5056130BD29B12E4A526902432D4B88
:101360005A6104E02B4A526982432A4B5A61704702
:1013700029B1284A92690243264B9A6104E0254A22
:1013800092698243234B9A61704729B1214AD269FD
:101390000243204BDA6104E01E4AD26982431D4BAE
:1013A000DA61704729B11B4AD2680243194BDA60EF
:1013B00004E0184AD2688243164BDA60704729B1BC
:1013C000144A12690243134B1A6104E0114A12696C
:1013D0008243104B1A6170471449403908607047C6
:1013E0000F49C86470470B49C87170470948406A83
:1013F00040F0807007494862704701460020054A66
:1014000092680A4201D0012000E0002070470149A3
:1014100088727047001002400000FFF8FFFFF6FEE0
:1014200000004242D8004242201002408004424262
:1014300000127A0000093D00240000203400002042
:1014400010B50446FE48844208D10121C014FFF7BC
:10145000A9FF0021E014FFF7A5FFC4E0B4F1804F1D
:1014600008D101210846FFF7AAFF00210120FFF75C
:10147000A6FFB8E0F348844208D101210220FFF71B
:101480009EFF00210220FFF79AFFACE0EE48844265
:1014900008D101210420FFF792FF00210420FFF76B
:1014A0008EFFA0E0E948844208D101210820FFF71F
:1014B00086FF00210820FFF782FF94E0E448844281
:1014C00008D101211020FFF77AFF00211020FFF73B
:1014D00076FF88E0DF48844208D101212020FFF711
:1014E0006EFF00212020FFF76AFF7CE0DA4884428B
:1014F00008D101214014FFF755FF00216014FFF7C8
:1015000051FF70E0D548844209D10121C804FFF79A
:1015100049FF00214FF40020FFF744FF63E0D0486B
:10152000844209D101210805FFF73CFF00214FF457
:101530008010FFF737FF56E0CA48844209D10121E5
:101540004805FFF72FFF00214FF40010FFF72AFF97
:1015500049E0C548844208D101214020FFF72FFF10
:1015600000214020FFF72BFF3DE0C048844208D116
:1015700001218020FFF723FF00218020FFF71FFFBC
:1015800031E0BB48844208D101218015FFF717FFE5
:101590000021A015FFF713FF25E0B648844209D1CA
:1015A00001210804FFF7FEFE00214FF48030FFF711
:1015B000F9FE18E0B048844209D101214804FFF740
:1015C000F1FE00214FF40030FFF7ECFE0BE0AB48DA
:1015D000844208D101218804FFF7E4FE00214FF482
:1015E0008020FFF7DFFE10BD00220288944B984256
:1015F0000ED0994B98420BD0B0F1804F08D0914B50
:10160000984205D0904B984202D0904B984204D11A
:101610004FF68F731A404B881A438D4B984207D070
:101620008C4B984204D04FF6FF431A40CB881A43A4
:1016300002808B8883850B880385814B98420BD071
:10164000854B984208D08B4B984205D08A4B9842E4
:1016500002D08A4B984201D10B7A03860123838200
:10166000704770B5002400220023058C4FF6FE76EB
:1016700035400584028C8388048B4FF68F752C408F
:10168000B51E2C400D882C43751E2A400D892A4317
:101690004D882A436A4DA8420BD06F4DA84208D00E
:1016A000744DA84205D0744DA84202D0734DA84293
:1016B00013D14FF6F7752A404D892A434FF6FB7533
:1016C0002A408D882A434FF6FF652B404FF6FF5581
:1016D0002B408D892B43CD892B4383800483CD8878
:1016E0008586028470BD70B5002400220023058C1D
:1016F0004FF6EF7635400584028C8388048B48F6DC
:10170000FF752C404FF6FF452C400D884FF6FF76B5
:1017100006EA05252C434FF6DF752A400D8906EAB7
:1017200005152A434D8806EA05152A43444DA8426B
:1017300002D0494DA8421DD14FF67F752A404D89F0
:101740004FF6FF7606EA05152A434FF6BF752A4085
:101750008D8806EA05152A434FF6FF352B404FF2D8
:10176000FF752B408D8906EA85052B43CD8906EA56
:1017700085052B4383800483CD880587028470BD53
:1017800070B5002400220023058C4FF6FF6635401B
:101790000584028C8388848B4FF68F752C404FF61E
:1017A000FC752C400D882C434FF6FF552A400D89BF
:1017B0004FF6FF7606EA05252A434D8806EA0525F9
:1017C0002A431F4DA84202D0234DA8421DD14FF2FB
:1017D000FF752A404D894FF6FF7606EA05252A4314
:1017E0004FF6FF352A408D8806EA05252A434EF636
:1017F000FF752B404DF6FF752B408D8906EA0515C8
:101800002B43CD8906EA05152B4383808483CD883D
:101810008587028470BD70B5002200230024058CEA
:101820004EF6FF7635400584038C8488828B48F61B
:10183000FF752A404FF6FF452A400D8820E0000042
:10184000002C01400004004000080040000C004053
:10185000001000400014004000340140004C0140E2
:10186000005001400054014000180040001C00409E
:101870000020004000400140004401400048014079
:101880004FF6FF7606EA05252A434DF6FF752B40F5
:101890000D8906EA05352B434D8806EA05352B43AD
:1018A000FA4DA84202D0FA4DA84208D14BF6FF7576
:1018B0002C408D894FF6FF7606EA85152C438480EF
:1018C0008283CD88A0F84050038470BD828B4FF294
:1018D000FF331A408283828B4FF6FF7303EA0123A2
:1018E0001A4382837047F0B50C461546002200214A
:1018F0000026078C4EF6FF7C07EA0C070784828BD4
:10190000018C4FF6FF7707EA043640F6FF473A406E
:101910004FF6FF7707EA05273A434FF6FF7707EAC6
:1019200003373A43D94FB8420ED0D94FB8420BD003
:10193000B0F1804F08D0D74FB84205D0D64FB8424B
:1019400002D0D64FB84206D14DF6FF77394046F463
:101950008057394305E047F6FF57394044F4805734
:10196000394382830184F0BD828B4FF6F3731A40B2
:101970008283828B0A4382837047F0B50C461546FA
:10198000002200210026078C4FF6FF6C07EA0C07A7
:101990000784828B018C4FF6FF7707EA04264FF607
:1019A0000C773A404FF6FF7707EA03172F433A4385
:1019B000B64FB8420ED0B64FB8420BD0B0F1804F00
:1019C00008D0B44FB84205D0B34FB84202D0B34F9D
:1019D000B84206D14FF6FF57394046F48077394375
:1019E00005E04FF2FF57394044F480773943828352
:1019F0000184F0BD028B4FF2FF331A400283028B49
:101A00004FF6FF7303EA01231A4302837047F0B5D0
:101A10000C461546002200210026078C4FF6EF7C6D
:101A200007EA0C070784028B018C4FF6FF7707EA61
:101A3000041640F6FF473A404FF6FF7707EA0337B0
:101A40003A434FF6FF7707EA05273A438F4FB842EC
:101A50000ED08F4FB8420BD0B0F1804F08D08D4FD1
:101A6000B84205D08C4FB84202D08C4FB84206D154
:101A70004FF6DF77394046F01007394305E04FF65F
:101A80005F77394044F01007394302830184F0BD89
:101A9000028B4FF6F3731A400283028B0A430283D0
:101AA0007047F0B50C46154600220021068C4FF613
:101AB000FE773E400684028B018C4FF60C76324056
:101AC0007E1C06EA03162E433243704EB0420ED0FF
:101AD0006F4EB0420BD0B0F1804F08D06D4EB04287
:101AE00005D06D4EB04202D06C4EB04206D14FF6DA
:101AF000FD76314044F00106314305E04FF6F576BE
:101B0000314044F00106314302830184F0BD70B5D9
:101B100005460C465D4885420ED05D4885420BD097
:101B2000B5F1804F08D05B48854205D05A488542C0
:101B300002D05A48854200D100E000BF208850B949
:101B40002389A28861882846FFF7ABFFE1882846F1
:101B5000FFF79EFF25E0208804280AD12389A28868
:101B600061882846FFF753FFE1882846FFF742FFC8
:101B700017E0208808280AD12389A288618828468E
:101B8000FFF7FBFEE1882846FFF7EEFE09E0238918
:101B9000A28861882846FFF7A6FEE1882846FFF75D
:101BA00095FE70BD2DE9F04105460C460026012743
:101BB000608808B9022600E00026A088012801D12B
:101BC000022700E001272088A0B92389A288618824
:101BD0002846FFF766FFE1882846FFF759FF23896B
:101BE0003A4631462846FFF712FFE1882846FFF7BC
:101BF00001FF13E02389A28861882846FFF707FFC9
:101C0000E1882846FFF7F6FE23893A463146284602
:101C1000FFF747FFE1882846FFF73AFFBDE8F0816C
:101C20000A884B881A438B881A43CB881A430B893E
:101C30001A434B891A438B891A43A0F844207047F2
:101C40004FF6FF71818000210180C18041800172C7
:101C500070470021018041808180C18001814181E4
:101C60008181C181704700210180418001218180F3
:101C70000021C18001817047002101804180818065
:101C8000C18001814181818170470000002C0140A9
:101C9000003401400004004000080040000C0040F7
:101CA00021B1028842F00102028004E002884FF66E
:101CB000FE731A400280704731B1B0F8442042F4FC
:101CC0000042A0F8442005E0B0F84420C2F30E0220
:101CD000A0F8442070471AB183890B43838102E046
:101CE00083898B43838170478182704741EA020375
:101CF000A0F8483070471AB183890B43838102E012
:101D000083898B438381704701894FF6F8721140B4
:101D1000018170470A46002101894FF68F731940EF
:101D200011430181704730B504460D4629462046CF
:101D3000FFF7F0FF208940F00700208130BD2DE93A
:101D4000F04104460D4616461F46602D06D13B461F
:101D5000012231462046FFF75AFE05E03B460122AC
:101D600031462046FFF79DFE29462046FFF7D2FF69
:101D7000208940F007002081BDE8F08130B50C4695
:101D800000210189C9B24FF6FF7505EA0325154305
:101D900025432943018130BD2DE9F04105460E461A
:101DA00017469846002443463A4631462846FFF7F0
:101DB000E5FF2C894FF6F870044044F007044FF615
:101DC0008F70044044F070042C81BDE8F081F0B5C0
:101DD00004460D4616461F463B46324629462046D7
:101DE000FFF7CCFF208940F480402081F0BD0185C1
:101DF000828270470A46002101884FF68F7319408E
:101E0000114301807047F0B50C4615461E4600216F
:101E1000002200230189028B038C4FF6F8773940AA
:101E200021434FF6FC473A4040F201173A434FF640
:101E3000DD773B404FF6FF7707EA06172F433B431A
:101E4000018102830384F0BD0A460021018B4FF615
:101E50008F7319401143018370470A460021018B9B
:101E600048F6FF7319404FF6FF7303EA0223194344
:101E7000018370470A460021818B4FF68F7319400A
:101E80001143818370470A460021818B48F6FF7316
:101E900019404FF6FF7303EA022319438183704709
:101EA00021B1028842F08002028004E002884FF6ED
:101EB0007F731A400280704721B1828842F0040289
:101EC000828004E082884FF6FB731A40828070475C
:101ED00021B1828842F00802828004E082884FF6B5
:101EE000F7731A408280704721B1828842F0010264
:101EF000828004E082884FF6FE731A408280704729
:101F00000A460021018B4FF6F773194011430183F4
:101F100070470A460021018B4FF2FF7319404FF6BC
:101F2000FF7303EA02231943018370470A46002125
:101F3000818B4FF6F77319401143818370470A462E
:101F40000021818B4FF2FF7319404FF6FF7303EAB4
:101F500002231943818370470A460021018B4FF603
:101F6000FB7319401143018370470A460021018B1E
:101F70004FF6FF3319404FF6FF7303EA022319436C
:101F8000018370470A460021818B4FF6FB7319408D
:101F90001143818370470A460021818B4FF6FF333E
:101FA00019404FF6FF7303EA0223194381837047F8
:101FB0000A460021018B4FF67F73194011430183BC
:101FC00070470A460021018BC1F30E014FF6FF73E3
:101FD00003EA02231943018370470A460021818BDB
:101FE0004FF67F7319401143818370470A460021E1
:101FF000818BC1F30E014FF6FF7303EA02231943ED
:10200000818370470A460021018C4FF6FD73194009
:102010001143018470470A460021018C4FF6F77383
:1020200019401143018470470A460021018C4FF684
:10203000DF7319404FF6FF7303EA0213194301845B
:1020400070470A460021018C4FF67F7319404FF606
:10205000FF7303EA02131943018470470A46002103
:10206000018C4FF6FF5319404FF6FF7303EA02232A
:102070001943018470470A460021018C4FF2FF7317
:1020800019404FF6FF7303EA022319430184704796
:102090000A460021018C4DF6FF7319404FF6FF737D
:1020A00003EA023319430184704730B50023012449
:1020B0008C40A3B2048C9C430484048C02FA01F586
:1020C000ADB22C43048430BD30B5002304248C40D1
:1020D000A3B2048C9C430484048C02FA01F5ADB2D3
:1020E0002C43048430BD70B50346002000241846FC
:1020F000183001258D40ACB21D8CA5431D8409B15B
:10210000082909D100EB6100056825F0700505601C
:102110000568154305600EE00D1FC5F34E05284404
:10212000056825F4E045056005684FF6FF7606EA88
:1021300002263543056070BD21B1028842F00202DB
:10214000028004E002884FF6FD731A400280704757
:1021500021B1028842F00402028004E002884FF6B6
:10216000FB731A400280704721B1828842F08002DE
:10217000828004E082884FF67F731A408280704725
:1021800002884FF6F7731A40028002880A430280E1
:10219000704782884FF68F731A40828082880A4384
:1021A0008280704702894FF6F8731A4002810289D3
:1021B0000A430281704702894FF67F731A400281F9
:1021C00002890A4302817047818470478185704784
:1021D000818670470187704781877047A0F840105B
:1021E000704702884FF6FF431A40028002880A4374
:1021F000028070470146888E70470146088F7047FD
:102200000146888F70470146B1F84000704701468B
:10221000888C70470146088D704702460020138A5B
:102220000B4201D0012000E000207047CA43028227
:10223000704730B50246002000230024158A05EAC5
:102240000103958905EA010413B10CB1012000E0F6
:10225000002030BDCA4302827047000010B504461A
:10226000FB48844209D101218803FFF79BF8002134
:102270004FF48040FFF796F832E0F648844209D1E7
:1022800001214804FFF79BF800214FF40030FFF7CD
:1022900096F825E0F048844209D101218804FFF72F
:1022A0008EF800214FF48020FFF789F818E0EB4802
:1022B000844209D10121C804FFF781F800214FF4BD
:1022C0000020FFF77CF80BE0E548844208D10121AB
:1022D0000805FFF774F800214FF48010FFF76FF83E
:1022E00010BD2DE9F04786B005460E460024A246F3
:1022F00000BFA1460027B08900B100BF2F462C8A3D
:102300004CF6FF700440F08804432C82AC894EF6F2
:10231000F3100440B08831890843718908430443AD
:10232000AC81AC8A4FF6FF400440B0890443AC82D4
:1023300001A8FEF7B0FFC648874202D1DDF810A021
:1023400001E0DDF80CA0A88910F4004F08D00AEBDA
:10235000CA0000EB0A1031684900B0FBF1F807E051
:102360000AEBCA0000EB0A1031688900B0FBF1F8F3
:102370006420B8FBF0F004012009642101FB1089FE
:10238000A88910F4004F08D0322000EBC900B0FB40
:10239000F1F000F00700044308E0322000EB0910E0
:1023A0006421B0FBF1F000F00F0004432C8106B073
:1023B000BDE8F0874FF41651016000218180C18093
:1023C00001810C21418100218181704710B50246B5
:1023D0000020108A4FF2FF0318400B884C882343DB
:1023E0008C882343CC8823431843108210BD0021DE
:1023F000018041808180C180704721B1828942F48F
:102400000052828104E082894DF6FF731A40828176
:102410007047F0B503460024002600250020A1F5F2
:1024200010676A3F00D100BF1846C1F3421401F0A3
:102430001F06012707FA06F5012C01D10C3004E034
:10244000022C01D1103000E014301AB107682F437C
:10245000076002E00768AF430760F0BD1AB1838AE6
:102460000B43838202E0838A8B4383827047028A14
:102470004FF6F0731A400282028A0A4302827047C2
:1024800082894FF2FF731A40828182890A438281D6
:10249000704721B1828942F00202828104E0828980
:1024A0004FF6FD731A4082817047028A4FF6DF7340
:1024B0001A400282028A0A430282704721B1028ACC
:1024C00042F48042028204E0028A4BF6FF731A4013
:1024D00002827047C1F308028280704701468888F3
:1024E000C0F308007047818941F001018181704784
:1024F000028BD2B20283028B42EA0122028370472E
:10250000028B02F47F420283028B0A4302837047EC
:1025100021B1828A42F02002828204E0828A4FF650
:10252000DF731A408282704721B1828A42F0100222
:10253000828204E0828A4FF6EF731A4082827047EB
:1025400021B1828A42F00802828204E0828A4FF638
:10255000F7731A408282704721B1828942F40042A7
:10256000828103E08289C2F30E028281704721B129
:10257000828A42F40062828204E0828A4FF2FF7310
:102580001A4082827047828A4FF6FB731A40828219
:10259000828A0A438282704721B1828A42F0020213
:1025A000828204E0828A4FF6FD731A40828270476D
:1025B00002460020B1F5007F00D100BF13880B4216
:1025C00001D0012000E00020704701F40072B2F554
:1025D000007F00D100BFCA430280704770B5024639
:1025E0000024002300250020A1F510666A3E00D1DA
:1025F00000BFC1F3421501F01F03012606FA03F3E1
:10260000012D02D19689334006E0022D02D1168AAF
:10261000334001E0968A33400C12012606FA04F496
:102620001688344013B10CB1012000E0002070BDC9
:1026300010B500220023A1F510646A3C00D100BF50
:102640000A1201249440A3B2DC43048010BD0000B0
:10265000003801400044004000480040004C004069
:10266000005000407FB505460C4601210420FEF7CE
:102670008CFEADF80850ADF804400020ADF80A001B
:10268000ADF8060001A97448FEF7AEFF012211461D
:102690007148FFF720FB1E208DF8000000208DF808
:1026A000010003208DF8020001208DF80300684628
:1026B000FDF70FFF01216848FFF7F2FA7FBD7FB5F4
:1026C00005460C4601210220FEF75FFEADF80850DA
:1026D000ADF804400020ADF80A00ADF8060001A9ED
:1026E0005E48FEF781FF012211465C48FFF7F3FACE
:1026F0001D208DF8000000208DF8010003208DF8CA
:10270000020001208DF803006846FDF7E2FE01217A
:102710005248FFF7C5FA7FBD10B501214E48FFF7BB
:1027200088FD00287ED04E484E49098800EB1130C4
:1027300000784D4908704A484A490988C1F3032185
:10274000405C49494870464846490978C1F303113D
:10275000405C454988704348007800F00F004049CC
:10276000085C4149C870084601784048007800EB91
:1027700080003F4A11543C4841783C48007800EBC7
:102780008000401C1154384881783848007800EBAC
:102790008000801C11543448C1783448007800EB24
:1027A0008000C01C115450213048007800EB80009C
:1027B000001D11542D480078401C2C490870084613
:1027C00000780A2805D1104601F0E0FD00202749D5
:1027D000087000F03BF940F6E44100FB01F4E0171B
:1027E00004EB1050C0F30F301E49088008460088E3
:1027F0002049214A127821F812001F480078401C15
:10280000C0B21D490870F02190FBF1F201FB1200EB
:10281000194908701448007818490870124840781F
:10282000487000E008E01048807888700E48C07852
:10283000C870134800F049F901210748FFF70AFD65
:1028400010BD10B501210548FFF7F3FC0121034835
:10285000FFF700FD10BD000000080040000400402C
:102860003C000020380000205C0000203B000020DD
:1028700048030020680100203A00002000000020EA
:102880004400024000B587B001214FF40170FEF70B
:102890006FFD4FF40040FEF7D2FCF020ADF80400CD
:1028A00000208DF8070001A96F48FEF7AFFA6F48C6
:1028B000FDF778FE002002908DF80C008DF80D00D9
:1028C0004FF4602004900020059001208DF818003E
:1028D00002A96648FDF78DFE01216448FDF7B5FEAB
:1028E0006248FDF7D4FE00BF6048FDF7D5FE002822
:1028F000FAD15E48FDF7DAFE00BF5C48FDF7DBFE6B
:102900000028FAD101215948FDF7DFFE07230122F3
:1029100011465648FDF705FF01215448FDF7D5FE45
:1029200007B000BD00B587B001214FF40470FEF779
:102930001FFD4FF40040FEF782FC0F20ADF80400AD
:1029400000208DF8070001A94948FEF75FFA4748C3
:10295000FDF728FE0020029001208DF80C008DF874
:102960000D004FF4602004900020059004208DF8A5
:10297000180002A93D48FDF73CFE0723012204216F
:102980003A48FDF7CEFE0723022205213748FDF71E
:10299000C8FE0723032206213448FDF7C2FE0723A1
:1029A000042219463148FDF7BCFE01212F48FDF7EE
:1029B00057FE01212D48FDF748FE2C48FDF767FE24
:1029C00000BF2A48FDF768FE0028FAD12748FDF726
:1029D0006DFE00BF2548FDF76EFE0028FAD10121EB
:1029E0002248FDF772FE07B000BD70B50446002511
:1029F00000BF02211D48FDF7C3FF0028F9D01B4886
:102A0000FDF7F6FE05460723012221461748FDF78C
:102A100088FE01211548FDF758FE284670BD2DE9B6
:102A2000F04107460C460025002608E03846FFF72F
:102A3000DCFF0544052000F03BF9701CC6B2A6423D
:102A4000F4DBB5FBF4F080B2BDE8F0810022002198
:102A500005E0084830F811000244481CC1B20429BE
:102A6000F7DBC2F38F0070470008014000240140EB
:102A700000100140060000202DE9F04107460D46F8
:102A800016461C4601210846FEF765FC3846FDF750
:102A9000A7FF2F4804802F480560466010202D496D
:102AA00088600846C46000200861802048610020DA
:102AB0008861C86108624FF48050486200208862D3
:102AC0003846FEF72FF8BDE8F08110B50446002126
:102AD0002046FEF752F81E4801882046FEF762F8AD
:102AE00001212046FEF749F810BD2DE9F0410746C7
:102AF0000C4615461E4601210846FEF72CFC3846BA
:102B0000FDF76EFF1348046045600020114988609E
:102B10000846C66000200861802048614000886146
:102B20008000C8612020086200024862002088629C
:102B30003846FDF7F7FFBDE8F08110B504460021E7
:102B40002046FEF71AF801212046FEF716F810BDC0
:102B5000600000207C03002010B586B004460121EF
:102B600044F20400FEF704FC2E48FFF777FB4FF415
:102B70000070ADF8140003208DF8160018208DF8B1
:102B8000170005A92848FEF741F94FF48060ADF819
:102B9000140004208DF8170005A92348FEF736F924
:102BA00025208DF8000003208DF801008DF802002B
:102BB00001208DF803006846FDF78BFC019400208E
:102BC000ADF80800ADF80A00ADF80C00ADF8100043
:102BD0000C20ADF80E0001A91248FFF782FB01227C
:102BE00040F225510F48FFF714FC01210D48FFF773
:102BF00004FC012280210B48FFF730FC06B010BD19
:102C000010B5002440F225510648FFF7E7FC18B143
:102C10000448FFF763FCC4B240F227710148FFF794
:102C2000DDFC10BD003801400008014010B54FF434
:102C3000A060FDF749FC10BD10B56FF00400FDF772
:102C400093FC2D4800682D49B0FBF1F02C49087029
:102C50000846007800EB4001C1EBC0104FF6FF7151
:102C600001EAC0002749088010BD0146244A1278B5
:102C70004A434FF0E0235A6100229A611A461269D2
:102C800042F001021A6100BF4FF0E022106910F01B
:102C9000010F02D010F4803FF6D04FF0E02212690D
:102CA00022F001024FF0E0231A6100229A6170477E
:102CB0000146144A12884A434FF0E0235A61002229
:102CC0009A611A46126942F001021A6100BF4FF080
:102CD000E022106910F0010F02D010F4803FF6D00E
:102CE0004FF0E022126922F001024FF0E0231A6156
:102CF00000229A61704700001000002000127A0044
:102D0000620000206400002010B504462CB90120A8
:102D1000FE4909680882002010BDFD49096808685D
:102D20008047FA4800680A30F6E710B5F7480068AF
:102D3000C078F8494978884213DCF4480068807804
:102D400078B9F2480068808858B9F0480068C078BF
:102D5000EE4909688872EE49096848688047002092
:102D600010BD0220FCE710B504462CB90120E7494C
:102D700009680882002010BDE54909688868804715
:102D8000E24800680C30F6E710B5E04B1B68D978D4
:102D9000DE4B1B685879E04B1B689A6990470446E4
:102DA000DA480068807AE8B13CB9D8480068007910
:102DB00018B9D6480068807808B1022010BD8CB9D7
:102DC000D3490968C8688047D04800684079CF492E
:102DD0000968C872CD480068C078CC490968087392
:102DE0000020EBE70220E9E710B504462CB90220E9
:102DF000C64909680882002010BD0020C749088024
:102E0000C2480068007810F07F0F23D1BF490968DD
:102E1000487A10F0200F06D0C049097841F002012D
:102E2000BE4A117005E0BD49097801F0FD01BB4AB9
:102E3000117010F0400F06D0B849097841F0010137
:102E4000B64A117005E0B549097801F0FE01B34AB0
:102E5000117036E0AD480068007800F07F0001286E
:102E600001D1AE48C8E7A9480068007800F07F00AB
:102E7000022824D1A54A1268517901F00F0011F0FF
:102E8000800F0DD0A64A52F8202002F03002102AFE
:102E900014D1A24A127842F00102A04B1A700DE040
:102EA0009F4A52F8202002F44052B2F5805F05D1CB
:102EB0009A4A127842F00102984B1A7001E0002001
:102EC0009AE79349096808698047944894E72DE98F
:102ED000F0478E480068007800F07F08B8F1000FD6
:102EE0000AD18A480068407A00F0DF008749096803
:102EF00048720020BDE8F087B8F1020F7ED1834808
:102F00000068408818B981480068007908B102203B
:102F1000F0E7DFF800927D480068477927F08005E8
:102F20002C467A480068407910F0800F05D07C4824
:102F300050F8240000F0300604E0794850F82400EE
:102F400000F4405699F80000A84204D91EB16F4819
:102F50000068807A08B90220CCE717F0800F0ED005
:102F60006F4850F8240000F0300010283FD1E0B244
:102F700000F097FFE0B2302100F03FFE37E06848F4
:102F800050F8240000F44050B0F5805F2FD1C4B950
:102F9000644A92F82C10E0B201F00AF8604951F846
:102FA00024104BF68F7201EA020080F4805080F406
:102FB000005040F4004141F08001594A42F8241089
:102FC00015E0E0B200F057FF554951F824104BF6D8
:102FD0008F7201EA020080F4805080F4005040F4C7
:102FE000004141F080014E4A42F8241000BF484998
:102FF00009684869804700207CE7FFE700BF02209E
:1030000078E72DE9F04141480068467926F08007CD
:103010003C463E480068407910F0800F05D040489B
:1030200050F8240000F0300504E03D4850F824003A
:1030300000F4405537480078A04208D9334800686A
:10304000408820B91DB131480068807A10B902204B
:10305000BDE8F08116F0800F10D0314951F82410EE
:1030600048F6BF7201EA020080F0100040F400410F
:1030700041F080012A4A42F8241010E0284951F812
:1030800024104BF68F7201EA020080F4805040F465
:10309000004141F08001224A42F8241000BF1C493F
:1030A0000968886980470020D2E710B51748006892
:1030B000407A40F0200015490968487214490968AF
:1030C000C8698047002010BD10B502460F4800684F
:1030D000438A32B98888C01A0C4C246820820020A8
:1030E00010BD08681844FBE72DE9F0410748006867
:1030F00000F110042688A06838B336B3A588B5421D
:1031000000D93546A8B2A16888470DE070000020BC
:103110007C000020C4000020740000206800002013
:10312000005C0040C800002007462088401B20802B
:10313000608828446080002000F00CFF8046AAB21E
:103140004146384600F0FAFC00BF208850B14FF4E9
:103150004050FA4908800021084600F007FF30205F
:10316000F74908802088A188884204DB0320F549BC
:103170000968087218E02088002804DD0520F1495C
:103180000968087210E0208870B90620ED490968C6
:1031900008720021EC48006880B2801CEB4A42F8BB
:1031A00010103020E6490880BDE8F0812DE9F04795
:1031B000E448006800F110052E88E2480068077AAC
:1031C000D6B9042F18D1E248007801280FD1002188
:1031D000DD48006880B2801CDC4A42F810103020C4
:1031E000D749088000BF0020D949087003E00727AD
:1031F0001020D349088027E0AC88A64201D80420DB
:1032000000E002200746B44200D93446A0B2A968C3
:1032100088478046002000F08DFE8146A2B24946D4
:10322000404600F071FCA1B2002000F09FFE28880B
:10323000001B28806888204468803020C0490880AE
:103240000002BE49088000BFBE4909680F72BDE890
:10325000F08770B50226BB4800684478B94800681A
:10326000007810F07F0F44D1092C03D1FFF75DFDEA
:1032700006465FE0052C14D1B2480068C0787F286C
:103280000BDCB0480068807838B9AE4800688088A8
:1032900018B9AC480068807A08B1082565E00026B6
:1032A00048E0032C0ED1A7480068C078012807D158
:1032B000A4480068808818B9FFF7F7FE064639E091
:1032C000022637E0012C35D19E480068C0780128DD
:1032D0000DD19C480068808848B99A480068407AB7
:1032E00010F0200F03D0FFF7F2FD064622E0022681
:1032F00020E094480068007800F07F00012805D1A4
:103300000B2C17D1FFF740FD064613E08D480068EF
:10331000007800F07F0002280BD1012C03D1FFF7C9
:10332000D6FD064606E0032C04D1FFF76AFE0646EA
:1033300000E002264EB1E0B2864A12685169884721
:103340000646032E01D109250FE00EB108250CE039
:10335000062500217C48006880B2801C7B4A42F828
:10336000101030207649088000BF764909680D7238
:1033700070BD2DE9F05F7348006845780027BA46B4
:10338000062D1AD16F480068007810F07F0F13D116
:103390006C4909688878012803D16E490968CF69AA
:1033A0000AE0022803D16B4909680F6A04E0032888
:1033B00002D1684909684F6A97E0002D65D16148DC
:1033C00000684088002860D15E480068C0880228F4
:1033D0005BD15C4800680079002856D159480068E4
:1033E000007810F07F0F06D156480068808810B929
:1033F000AFF20B6779E053480068007800F07F0077
:10340000012811D14F4909684879524909688A69E8
:1034100000219047002868D14A480068807A002837
:1034200063D0AFF23B6760E046480068007800F088
:103430007F00022859D143480068407900F00F0608
:1034400040480068407900F070093E4800684079C3
:1034500010F0800F06D03C48503850F8260000F09D
:10346000300805E03848503850F8260000F440583D
:1034700039480078B04238D9B9F1000F35D1B8F1E8
:10348000000F32D0AFF29F672FE0082D08D12D48F2
:103490000068007810F07F0F27D1AFF2937724E017
:1034A0000A2D22D127480068007800F07F0001280B
:1034B0001BD124480068807AB8B12248006840884F
:1034C00098B920480068007978B91E480068C0881B
:1034D00001280AD11B49096848791E4909688A6987
:1034E0000021904708B9AFF2817757B115480068BD
:1034F000A0F812A01348006887610020B847002494
:103500000FE0104A12685078124A12681169884711
:103510000446032C05D109200A4909680872BDE850
:10352000F09F08480068008AA0F57F41FF3915D157
:103530000920044909680872F1E7000080000020B2
:103540008200002070000020505C004000600040BD
:103550006600002074000020C4000020022C03D06C
:103560009C480068008A20B908209A4909680872B6
:10357000D5E798480068007810F0800F3BD0954858
:103580000068B0F806B093480068008A584504D92E
:1035900090490968A1F810B023E08E480068008ABD
:1035A0008C490968C98888421BDA8A480068008A01
:1035B0008949096891F82C10884203DA002087496C
:1035C00008700EE083480068008A8349096891F812
:1035D0002C1090FBF1F201FB120010B901207F4981
:1035E00008707D48006890F82C107A480068818245
:1035F000FFF7DCFD06E00320764909680872000346
:103600007749088000BF8AE710B5764890F82C10FB
:10361000002000F0CDFC6F480068007A082805D132
:1036200040026F49088010206F490880694800688F
:10363000007A092801D1012010BD0020FCE738B52F
:1036400001246A48006880B2001D694931F8100001
:1036500080B201EB400000905E480068007A0928C3
:1036600032D0009800785B49096808700098401CC7
:103670000090009800785749096848700098401CED
:103680000090009800EB44000090009931F8020B84
:10369000009100F02BFE4F4909684880009800EB2C
:1036A00044000090009931F8020B009100F01EFEDA
:1036B000484909688880009800EB44000090009811
:1036C000008844490968C880012042490968087295
:1036D00040480068C08810B9FFF7BBFD01E0FFF764
:1036E00048FEFFF791FF38BD30B50146414B1A78CF
:1036F000002012E0C3B23D4C503C54F8233048F651
:103700008F74234048F280042343C4B22343C4B2DD
:10371000364D503D45F82430401C9042EAD341F0EC
:103720008003324C241F236030BD10B52948006847
:10373000047A022C01D0042C05D1FFF737FD25486F
:103740000068047A1CE0062C19D1224800684078F1
:1037500005280ED11F480068007810F07F0F08D1AF
:103760001C490968C878FFF7BFFF23490968086A40
:1037700080471949096888688047082400E00824C0
:10378000144909680C72FFF73FFF10BD10B51148CE
:103790000068047A022C01D0042C01D1082412E024
:1037A000032C01D0052C05D1FFF79EFC09480068C9
:1037B000047A08E0072C05D107490968C8688047E2
:1037C000082400E00824034909680C72FFF71CFF75
:1037D00010BD7047700000207400002066000020BB
:1037E00080000020C800002082000020505C0040C3
:1037F00000600040C40000207C00002010B5084894
:1038000008490860022009680872074807490860EB
:10381000074808490860054909680868804710BDDD
:10382000A803002070000020C800002074000020C1
:10383000F80000207C00002010B5002404E1AC4812
:10384000008800F00F00AB49087008460078002897
:103850007ED1A9480068A94908800846008800F080
:103860003000A7490880A548008800F44050A349CB
:103870000880A14909684BF6BF7201EA020080F492
:10388000005080F0200040F4004141F080019A4A4D
:1038900011609748008810F0100F32D11046006870
:1038A00048F60F71084011460860FFF73EFF924945
:1038B00009684BF6BF7201EA02009049098811F4C9
:1038C000805F01D080F480508C49098811F4005F3A
:1038D00001D080F400508A49098811F0100F01D0FE
:1038E00080F010008649098811F0200F01D080F087
:1038F000200081B241F4004141F080017E4A116014
:1039000010BD7D48006884B214F4006F36D07A4848
:103910000068C0F30E0048F68F71084076490860D1
:10392000FFF78DFE744909684BF6BF7201EA020089
:103930007249098811F4805F01D080F480506F498A
:10394000098811F4005F01D080F400506C4900E058
:103950004CE0098811F0100F01D080F01000684988
:10396000098811F0200F01D080F0200081B241F4CD
:10397000004141F08001604A1160C1E714F4004F3A
:1039800062D05D480068C0F30E0048F68F710840B1
:1039900059490860FFF7FAFE574909684BF6BF72AC
:1039A00001EA02005549098811F4805F01D080F4D2
:1039B00080505249098811F4005F01D080F4005012
:1039C0004F49098811F0100F01D080F010004C49C8
:1039D000098811F0200F01D080F0200081B241F45D
:1039E000004141F08001444A116089E74148007874
:1039F000414951F8200084B214F4004F14D03D48DE
:103A0000007851F82000C0F30E0048F68F7108408E
:103A100038490978384A42F8210036490978491E60
:103A2000384A52F82100804714F0800F0CD03148FA
:103A30000078314951F8200048F60F7108402D49AF
:103A400009782D4A42F821002B484430006880B2A2
:103A50002749088010F4004F7FF4F1AE00BF4FE714
:103A600010B5002439E047F6FF702349443108605F
:103A70001F48008800F00F001E49087008460078B3
:103A80001D4951F8200084B214F4004F15D0194894
:103A9000007851F82000C0F30E0048F68F710840FE
:103AA00014490978144A42F8210012490978491E3C
:103AB000144A52F8210080470FE014F0800F0CD018
:103AC0000C4800780C4951F8200048F60F71084066
:103AD00008490978084A42F821000748443000683C
:103AE00080B20349088010F4004FBCD110BD000023
:103AF000C00000206C000020005C0040800000201E
:103B000082000020A4000020F0B5144604F1010C4E
:103B10004FEA6C07DFF848C00CEB41033D460AE072
:103B20000678401C90F800C046EA0C2223F8022BCD
:103B30009B1C401C6D1E002DF2D1F0BDF0B5561C33
:103B40007510074E06EB41042B4605E034F8047B64
:103B500020F8017B401C5B1E002BF7D1F0BD00005C
:103B600000600040F94908607047F848006880B27A
:103B70007047F649091D08607047F448001D006849
:103B800080B27047F1480830006880B27047EF4952
:103B90000C3108607047ED480C30006880B2704707
:103BA0004FF6F8710140E94A103211607047E7485A
:103BB0001030006880B27047E44A403A42F8201062
:103BC00070470146E148403850F8210080B2704704
:103BD000DE4A403A52F8202048F68F131A400A4332
:103BE000DA4B403B43F8202070470146D748403825
:103BF00050F8210000F4C060704710B5D34B403B33
:103C000053F8203048F6BF7403EA040211F0100F95
:103C100001D082F0100211F0200F01D082F02002BA
:103C200042F4004343F08003C84C403C44F8203049
:103C300010BD10B5C54B403B53F820304BF68F7488
:103C400003EA040211F4805F01D082F4805211F47F
:103C5000005F01D082F4005242F4004343F080033D
:103C6000BA4C403C44F8203010BD10B502460B461B
:103C70001046FFF7A6FF0446012B06D124F480501E
:103C8000B249403941F8220007E0022B05D124F067
:103C90001000AE49403941F8220010BD0146AB4842
:103CA000403850F8210000F0300070470146A74826
:103CB000403850F8210000F440507047A34A403A81
:103CC00052F8202048F6BF7302EA030181F0100188
:103CD00081F0200141F4004242F080029B4B403BC6
:103CE00043F820207047994A403A52F820204BF67A
:103CF0008F7302EA030181F4805181F4005141F491
:103D0000004242F08002914B403B43F82020704734
:103D10008E49403951F8201041F4807148F68F7275
:103D2000114048F280021143884A403A42F820107C
:103D300070478649403951F8201048F68F6211408B
:103D400048F280021143814A403A42F820107047FD
:103D50007E49403951F8201048F68F62114048F2F0
:103D600080021143794A403A42F82010704777495F
:103D7000403951F8201041F4807148F68F7211409B
:103D800048F280021143714A403A42F820107047CD
:103D90006E49403951F8201041F4807148F68F7215
:103DA000114048F280021143684A403A42F820101C
:103DB00070476649403951F8201048F68F6211402B
:103DC00048F280021143614A403A42F8201070479D
:103DD00001465E48403850F8210000F030001028BD
:103DE00001D1012070470020FCE7014657484038C8
:103DF00050F8210000F44050B0F5805F01D101205F
:103E000070470020FCE75149403951F82010C1F3B8
:103E10000E0148F68F7211404C4A403A42F8201089
:103E200070474A49403951F8201048F60F72114046
:103E3000464A403A42F8201070474449403951F808
:103E4000201048F68F7211404CF2800211433F4A15
:103E5000403A42F8201070473C49403951F8201050
:103E600048F68F72114048F2C0021143374A403A77
:103E700042F8201070473549403951F8201011F4AC
:103E8000804F0DD03149403951F8201048F68F72DB
:103E900011404CF2800211432C4A403A42F8201063
:103EA00070472A49403951F8201011F0400F0DD0C9
:103EB0002649403951F8201048F68F72114048F2D7
:103EC000C0021143214A403A42F8201070471F4A6D
:103ED000403A52F8202048F68F731A4048F2800387
:103EE0001A430A43194B403B43F8202070470146D0
:103EF0001648403850F8210000F00F00704710B508
:103F00004A105300114A1032126892B202EBC002FA
:103F10000F4C44F8123010BD10B54A1053000B4A34
:103F20001032126892B202EBC002121D084C44F823
:103F3000123010BD014605481030006880B200EB19
:103F4000C100034A32F8100080B27047405C004064
:103F5000006000400146E848006880B200EBC10004
:103F6000001DE64A32F8100080B27047E24A12683B
:103F700092B202EBC002921CE04B43F81210704761
:103F800002463E290BDD481111F01F0F01D1431EDF
:103F900098B24FF4004343EA8023136007E04810CF
:103FA00011F0010F01D0431C98B2830213607047D7
:103FB00010B50246D048006880B200EBC200801DF8
:103FC000CE4C04EB40033E290BDD481111F01F0FCE
:103FD00001D1441EA0B24FF4004444EA80241C6086
:103FE00007E0481011F0010F01D0441CA0B2840278
:103FF0001C6010BD0146C048006880B200EBC100E3
:10400000801CBE4A32F81000C0F309007047014618
:10401000B948006880B200EBC100801DB74A32F891
:104020001000C0F30900704730B54B105C00B24B74
:104030001B689BB203EBC003B04D45F8134053100F
:104040005C00AD4B1B689BB203EBC0031B1D45F826
:10405000134030BD10B54A105300A74A126892B2FF
:1040600002EBC002A54C44F8123010BD10B54A1046
:104070005300A14A126892B202EBC002121D9F4C7B
:1040800044F8123010BD01469B48006880B200EB36
:10409000C1009A4A32F8100080B270470146964833
:1040A000006880B200EBC100001D944A32F8100095
:1040B00080B2704730B50B46012B1FD18E4909687D
:1040C00089B201EBC001891C8C4D05EB41043E2AED
:1040D0000BDD511112F01F0F01D14D1EA9B24FF48B
:1040E000004545EA8125256007E0511012F0010FD7
:1040F00001D04D1CA9B28D0225600AE0022B08D127
:104100007D49096889B201EBC001891C7B4C44F8E8
:104110001120012B1FD17849096889B201EBC00138
:10412000891D764D05EB41043E2A0BDD511112F03D
:104130001F0F01D14D1EA9B24FF4004545EA81255C
:10414000256007E0511012F0010F01D04D1CA9B2FB
:104150008D0225600AE0022B08D16749096889B2FF
:1041600001EBC001891D654C44F8112030BD30B50C
:10417000034601291FD16048006880B200EBC300EC
:10418000801C5E4D05EB40043E2A0BDD501112F001
:104190001F0F01D1451EA8B24FF4004545EA802506
:1041A000256007E0501012F0010F01D0451CA8B2A5
:1041B000850225600AE0022908D14F48006880B2D4
:1041C00000EBC300801C4D4C44F8102030BD30B5CE
:1041D000034601291FD14848006880B200EBC300A4
:1041E000801D464D05EB40043E2A0BDD501112F0B8
:1041F0001F0F01D1451EA8B24FF4004545EA8025A6
:10420000256007E0501012F0010F01D0451CA8B244
:10421000850225600AE0022908D13748006880B28B
:1042200000EBC300801D354C44F8102030BD014622
:104230003148006880B200EBC100801C2F4A32F880
:104240001000C0F30900704701462B48006880B297
:1042500000EBC100801D294A32F81000C0F30900AC
:10426000704701462448006880B200EBC100801D01
:10427000224A32F8100010F47C4F01D00120704720
:104280001D48006880B200EBC100801C1B4A32F858
:1042900010008005800D01D00220F0E70020EEE73D
:1042A00001290ED1144A503A52F8202048F68F7353
:1042B0001A4048F2C0031A430F4B503B43F82020EA
:1042C0000FE002290DD10C4A503A52F8202048F64E
:1042D0008F731A404CF280031A43074B503B43F84C
:1042E00020207047024641EA022070470146CAB2C8
:1042F0000B1243EA02207047505C0040006000400F
:1043000010B50020FCF798FF0121C805FDF73DF826
:1043100010BD03204449086070474448817A19B1B0
:104320000521414A116002E001213F4A11607047B6
:104330000EB54FF4A060FCF7C7F84FF48020FCF7EF
:10434000FCFC4FF48020009008208DF8050001202F
:104350008DF806006846FCF779FC14208DF80800FB
:1043600002208DF8090000208DF80A0001208DF848
:104370000B0002A8FCF7ADF82A208DF808000120F8
:104380008DF8090002A8FCF7A4F80EBD10B504468C
:1043900032224FF48C712046FFF7B6FB244909689E
:1043A00048F6BF7201EA020080F0100080F02000A1
:1043B00040F4004141F080011D4A116010BD30B54C
:1043C0000B46002100BF16E00A24B4EB107F05D98C
:1043D000302404EB107403F8114005E0412404EB91
:1043E00010740A3C03F81140000100254C00641CC5
:1043F0001D554C1CE1B29142E6DB30BD70B50D4855
:104400000468001D0568001D0668344454B1082284
:1044100009492046FFF7D3FF0422074910312846F7
:10442000FFF7CDFF70BD000060010020A803002051
:10443000085C0040E8F7FF1F8600002010B501204F
:1044400006490870322298210548FFF777FB4FF4A0
:1044500040510120FFF7EDFB10BD00009E00002041
:10446000C403002010B53748006837490880084663
:10447000008800F4806035490988084206D06FF44E
:104480008060304908603249486880472E4800887B
:1044900000F400502D490988084203D06FF4005001
:1044A000284908602848008800F480502749098876
:1044B000084206D06FF4805022490860002000F0C6
:1044C000D4F92148008800F4006020490988084296
:1044D0000CD02048007810B100F0A7F902E00220CB
:1044E00000F0C3F96FF400601649086016480088B0
:1044F00000F4007015490988084208D06FF4007074
:104500001049086014480078401C134908700E4890
:10451000008800F480700D490988084206D06FF4C5
:10452000807008490860072000F09FF9064800885D
:1045300000F4004005490988084201D0FFF77CF9E2
:1045400010BD0000445C0040C00000207A00002044
:10455000C800002064010020A000002010B5FFF773
:104560004DFF002095490968887200F03FF900204E
:10457000934908604FF43F409249088008460088FC
:104580008F49091F086000208F49086010BD10B5D1
:1045900000208A490968887288490968C8728B486E
:1045A000C079864909684872002085490C31086045
:1045B00083484438006848F68F11084040F4007082
:1045C0007F494439086010210020FFF716FB1821AD
:1045D0000020FFF7A1FC58210020FFF790FC78484D
:1045E0004438006848F68F61084048F2800108436B
:1045F000734944390860764890F82C100020FFF782
:10460000D7FC6F49443909684BF68F7201EA020002
:1046100080F4805080F4005040F4004141F080016B
:10462000674A443A11604FF4C0610120FFF7D0FAA5
:1046300098210120FFF770FC32210120FFF7B8FC20
:104640004FF440510120FFF7F4FA4FF4C06102200B
:10465000FFF7BEFA4FF48C710220FFF750FC3221B5
:104660000220FFF783FC20210220FFF7C6FA012079
:10467000554908600020FFF737F810BD4F48006823
:10468000807A10B1052050490860704704204E49D7
:104690000860704770477047014629B90120474AB2
:1046A00012681082002070474A48FCE710B50446A3
:1046B00049492046FEF708FD10BD10B5044647499C
:1046C0002046FEF701FD10BD70B504460025062CFE
:1046D0001AD13A480068007800F07F00012813D111
:1046E00036480068407978B93448006880782228D4
:1046F00002D1AFF2390512E03048006880782128F5
:104700000DD1AFF257050AE02C480068007800F0A0
:104710007F00212803D1032C01D1AFF283050DB90D
:10472000022070BD2548006885610021234800688B
:1047300041820020A8470020F3E720480068C178A4
:10474000244801600020704700B502461B480068FD
:10475000007800F07F00212804D10B2A02D1FFF756
:10476000ECFF00BD0220FCE710B504461C492046C2
:10477000FEF7AAFC10BD10B504461A492046FEF704
:10478000A3FC10BD70B505460C480068C478042C25
:1047900001DD002070BD144800EBC4012846FEF77F
:1047A00093FCF7E70246002901DD02207047002A4A
:1047B00001DD0220FAE70020F8E700007000002089
:1047C000445C00407A00002060010020A4490008F9
:1047D000C80000205C010020340100202C010020D2
:1047E0001C010020240100203C0100200120494937
:1047F000086000204849088046490860091D086093
:104800004FF4E05044490880084600884149086058
:104810000020704701203F4908600020091D086002
:104820000320091F08600020704710B53948006850
:1048300084B244F0080437480460006884B244F04D
:10484000040434480460FFF764FD10BD10B531481E
:10485000006884B224F004042E480460FFF75DFD74
:104860004FF43F402B49086010BD70B50546072D39
:1048700001D02A48057029480078082841D2DFE88D
:1048800000F0040A1016212E4142FFF7DFFF062038
:10489000224908703BE0FFF7D9FF04201F49087048
:1048A00035E002201D494870032008702FE01B48A6
:1048B0004078401E194948700846407808B90420DD
:1048C000087024E01348006884B244F010041148D2
:1048D00004600520114908700A20487017E00F484D
:1048E0004078401E0D4948700846407840B9094854
:1048F000006884B224F010040648046006200870A2
:1049000005E000BF00BF06200449087000BF00BFDB
:1049100070BD0000405C00407A000020650100206E
:10492000704770477047754600F028F8AE4605009E
:104930006946534620F00700854618B020B5FBF7BE
:10494000B1FDBDE820404FF000064FF000074FF0EA
:1049500000084FF0000B21F00701AC46ACE8C0099D
:10496000ACE8C009ACE8C009ACE8C0098D467047A6
:104970000446AFF300802046FBF71FFC0048704759
:104980002804002001491820ABBEFEE726000200E3
:1049900070471201000200000040830450570002DB
:1049A0000102030109022900010100C032090400CB
:1049B000000203000000092110010001222100076C
:1049C00005820340002007050103400010058C0903
:1049D00001A101090115002600FF75089532810229
:1049E000090215002600FF750895329102C00403E4
:1049F00009042603530054004D006900630072004F
:104A00006F0065006C0065006300740072006F0049
:104A10006E006900630073002003530054004D00D2
:104A200033003200200043007500730074006D00F5
:104A30002000480049004400584A000800000020B7
:104A400068010000280100080C4B000868010020E4
:104A50002009000084010008011184A24A046809A9
:104A600001020304060708090C6910450204060840
:104A7000681D30313233343536373839414243449A
:104A80004546271E1F202122232425260405380100
:104A900024141A03531254124D12331A3202021103
:104AA00030133D4439700118230301135D451B0881
:104AB0008F041395461B0897041AC9041349471B12
:104AC00008A5041A69041A77041A850441324013B0
:104AD000D3371B087D2429080912041A8D1C139250
:104AE000493308121AA40832291ACD0832211AB6FD
:104AF0000829DD1AEE0832041AF208322613184A81
:0C4B00003308202284B3201A199F1100F2
:04000005080000ED02
:00000001FF
