:020000040800F2
:10000000E80A00202105000835030008370300082E
:100010003B0300083F030008430300080000000002
:10002000000000000000000000000000470300087E
:1000300049030008000000004B0300084D030008BE
:100040003B0500083B0500083B0500083B05000890
:100050003B0500083B0500083B0500083B05000880
:100060003B0500083B0500083B0500083B05000870
:100070003B0500083B0500083B0500083B05000860
:100080003B0500083B0500083B0500083B05000850
:100090004F0300083B0500083B0500089940000895
:1000A0003B0500083B0500083B0500083B05000830
:1000B0007B340008833300083D3200083B0500080C
:1000C0003B0500083B0500083B0500083B05000810
:1000D0003B050008F14B00083B0500083B05000804
:1000E0003B0500083B0500083B05000800F002F84E
:1000F00000F05FF80AA090E8000C82448344AAF163
:100100000107DA4501D100F054F8AFF2090EBAE860
:100110000F0013F0010F18BFFB1A43F0010318473B
:100120004CA600006CA600000A444FF0000C10F82A
:10013000013B13F0070408BF10F8014B1D1108BF65
:1001400010F8015B641E05D010F8016B641E01F805
:10015000016BF9D113F0080F1EBF10F8014BAD1C55
:100160000C1B09D16D1E58BF01F801CBFAD505E073
:1001700014F8016B01F8016B6D1EF9D59142D6D3CD
:10018000704700000023002400250026103A28BFF5
:1001900078C1FBD8520728BF30C148BF0B607047F9
:1001A000642906F01D84002070471FB51FBD10B5DF
:1001B00010BD06F0CEFC1146FFF7F7FF00F02DF85A
:1001C00006F0ECFC03B4FFF7F2FF03BC06F0F0FC12
:1001D00010B504460121042001F0D6FC3CB13E4894
:1001E000006880B220F002003B49086014E03A4801
:1001F000006880B240F00200374908603748006864
:1002000020F47F20354908600846006840F44C30EF
:10021000086000203249086010BD04F0FBFC04F0C7
:10022000FFFC04F0DFFB03F08DF903F0EEFF03F0B9
:1002300044FC03F039FA05232A4A2B492B4804F0E1
:1002400013FC04232A4A2B4928483C3804F045FC77
:100250004FF4165004F078FC0020FFF7B9FF4FF47C
:10026000967004F019FD0120FFF7B2FF06F054F874
:1002700006F03AF805F0B6FA4FF6FF7004F0B3F85E
:100280004FF47A7004F008FD04F04EFB17483C3838
:1002900004F04BFC41F61F41632002F075FF41F66C
:1002A0001F4140F2E73002F09CFF50200D490871D9
:1002B00011E001210948001F01F045FA20B900BFF3
:1002C00003F037FC0028FBD14FF4FA7004F0E4FC93
:1002D00009A006F05FF8ECE7405C0040040801402C
:1002E000B001214240000020043801404400024097
:1002F000460000204C240140436F6E6E65637420FD
:10030000746F2073746D3332207465737420746855
:1003100065206D6178206C656E67687420616E641D
:10032000206D6F7265206F766572203232204279BF
:1003300074650000704700BFFEE700BFFEE700BF26
:10034000FEE700BFFEE7704770477047704710B583
:1003500006F09EF810BD000000210020674A1268D8
:1003600042F48032654B1A6000BF644A126802F49E
:100370000030491C10B9B1F5A06FF6D15F4A126880
:1003800012F4003F01D0012000E00020012842D1FA
:100390005B4A126842F01002594B1A601A46126802
:1003A00022F003021A601A46126842F002021A6032
:1003B000524A5268514B5A601A4652685A601A465D
:1003C000526842F480625A601A46526822F47C12E3
:1003D0005A601A46526842F4E8125A601A46126885
:1003E00042F080721A6000BF444A126812F0007F27
:1003F000FAD0424A526822F00302404B5A601A4631
:10040000526842F002025A6000BF3C4A526802F051
:100410000C02082AF9D1704710B5FFF79DFF10BDF7
:1004200010B53648006840F00100344908600846BD
:1004300040683449084031494860084600683249FC
:1004400008402E4908600846006820F480200860B3
:100450000846406820F4FE0048604FF41F008860A2
:10046000FFF7DAFF4FF000602849086010BD10B5B3
:10047000002100200022214B5B6803F00C0121B118
:10048000042906D0082928D107E0214B214C2360FC
:1004900027E01F4B1F4C236023E0184B5B6803F4DD
:1004A0007010164B5B6803F48032022303EB90401C
:1004B00022B9194B4343174C23600DE00F4B5B6887
:1004C00013F4003F04D0144B4343124C236003E069
:1004D0000F4B43430F4C236003E00D4B0D4C236047
:1004E00000BF00BF054B5B68C3F303130B4CE15C1B
:1004F000084B1B68CB40074C236010BD0010024026
:10050000002002400000FFF8FFFFF6FE08ED00E0CB
:1005100000127A005000002000093D005400002025
:100520000948804709480047FEE7FEE7FEE7FEE787
:10053000FEE7FEE7FEE7FEE7FEE7FEE704480549C3
:10054000054A064B7047000021040008ED00000832
:10055000E8040020E80A0020E8060020E806002061
:1005600031490143314A1160704770B500210023C1
:100570000F22C4780CB32D4C246804F4E064C4F555
:10058000E064210AC1F10403CA40447804FA03F18B
:100590008478144021430901254C0678A15504783C
:1005A00004F01F050124AC4005786D114FF0E026E2
:1005B00006EB8505C5F8004109E0047804F01F0545
:1005C0000124AC401B4D0678761145F8264070BDDD
:1005D000194A0A400243154B1B1F1A60704739B174
:1005E000124A121D12680243104B1B1D1A6006E0CE
:1005F0000E4A121D126882430C4B1B1D1A60704775
:10060000042808D14FF0E021096941F004014FF0BE
:10061000E022116107E04FF0E021096921F00401B7
:100620004FF0E022116170470000FA050CED00E088
:1006300000E400E080E100E080FFFF1F10B5044609
:10064000F948844208D10121401501F0B7FA002190
:10065000601501F0B3FA17E0F448844208D1012193
:10066000001501F0ABFA0021201501F0A7FA0BE00C
:10067000EF48844208D10121C80301F09FFA00210C
:100680004FF4004001F09AFA10BD30B50246002048
:1006900000235068E74C20400D790C6844EA05249B
:1006A000204350609068E44C2040D1E902542C4330
:1006B0004D7944EA450420439060D06A20F47000EC
:1006C0000C7C641EE4B2234340EA0350D06230BD88
:1006D00000210160017141718160C16001210174DB
:1006E000704721B1826842F00102826003E08268B3
:1006F00022F001028260704721B1826842F4807268
:10070000826003E0826822F480728260704710B5D4
:100710000023CBB21AB144681C43446002E0446831
:100720009C43446010BD816841F0080181607047BE
:10073000014600208A6812F0080F01D0012000E075
:1007400000207047816841F00401816070470146D4
:1007500000208A6812F0040F01D0012000E0002080
:10076000704721B1826842F4A002826003E082688F
:1007700022F4A00282607047014600208A6812F4C9
:10078000800F01D0012000E00020704710B50A461C
:1007900000210023416821F46041531E41EA4331A6
:1007A000416010BD21B1426842F40062426003E042
:1007B000426822F4006242607047F0B504460D467C
:1007C00000200021092D11DDE068A5F10A0606EBE5
:1007D0004607072606FA07F18843A5F10A0606EB45
:1007E000460603FA06F10843E0600CE0206905EBD9
:1007F0004507072606FA07F1884305EB450603FA85
:1008000006F108432061072A0FDA606B561E06EBDB
:1008100086071F2606FA07F18843561E06EB860652
:1008200005FA06F10843606322E00D2A0FDA206B17
:10083000D61F06EB86071F2606FA07F18843D61F48
:1008400006EB860605FA06F10843206310E0E06A2D
:10085000A2F10D0606EB86071F2606FA07F188436C
:10086000A2F10D0606EB860605FA06F10843E062E2
:10087000F0BD21B1826842F48012826003E0826898
:1008800022F48012826070470146C86C80B27047C3
:1008900065484C300068704721B1426842F480627C
:1008A000426003E0426822F480624260704721B1F6
:1008B000426842F48052426003E0426822F480526F
:1008C000426070470A460021816821F4E0411143EB
:1008D0008160704721B1826842F40042826003E087
:1008E000826822F400428260704721B1826842F43B
:1008F0000212826003E0826822F402128260704772
:10090000014600208A6812F4001F01D0012000E097
:1009100000207047F0B5044615460020002200264E
:10092000092911DDE068A1F10A0707EB470C072749
:1009300007FA0CF29043A1F10A0707EB470703FA05
:1009400007F21043E0600CE0206901EB410C07273F
:1009500007FA0CF2904301EB410703FA07F2104348
:100960002061A06BC0F30156EF1C06F1010CA7EB50
:100970000C0707EB870C1F2707FA0CF29043EF1CBC
:1009800006F1010CA7EB0C0707EB870701FA07F24A
:100990001043A063F0BD10B50A4600210023816B0F
:1009A00021F44011531E41EA0351816310BD10B57B
:1009B000002303460B441A6010BD02460023134671
:1009C00001F128000344186880B270470A460021EC
:1009D00041681A4B1940114341607047416282627D
:1009E00070470A460021416821F01F011143416010
:1009F000704740B10C490831096841F400010A4AC6
:100A00000832116007E008490831096821F4000143
:100A1000054A0832116070470246002013680B42F5
:100A20000ED001200DE0000000240140002801400C
:100A3000003C0140FFFEF0FFFDF7F1FFFFFD3FFF2F
:100A400000207047CA430260704770B5024600201C
:100A5000002300240B125568CEB205EA060415687F
:100A60001D4202D00CB1012000E0002070BD002228
:100A70000A12D3430360704710B50121480701F003
:100A8000AAF800214FF0005001F0A5F810BD30B5D4
:100A900000220023514C226840F6FE748440A24399
:100AA000D1E900452C438D682C43CD6844EA050309
:100AB00003FA00F42243494C226030BD002101605A
:100AC00041608160C160704739B1444A12680123B6
:100AD00083401A43414B1A6006E0404A12680123E2
:100AE00083409A433D4B1A60704741B13B4A1268BC
:100AF0004FF4805383401A43384B1A6007E0374A5B
:100B000012684FF4805383409A43344B1A60704705
:100B100010B551B1314A121D126804090123A340D6
:100B20001A432E4B1B1D1A6009E02C4A121D126835
:100B300004090123A3409A43284B1B1D1A6010BDD2
:100B400040B12649091D096841F00301234A121DDD
:100B5000116007E02149091D096821F003011F4ABE
:100B6000121D1160704710B53AB11C4B1B6801FA99
:100B700000F42343194C236006E0184B1B6801FA6C
:100B800000F4A343154C236010BD0022134A00F16A
:100B900008031A44116070470022104A00F1140340
:100BA0001A441160704730B500240023082802D190
:100BB00042EA012401E042EA0144084B00F1200529
:100BC0002B441C6030BD01460022044A2C2000EB5F
:100BD00091000244106880B2704700000074004029
:100BE00001684FF6FE721140016000210160416012
:100BF0008160C1608C49884208D18B4908394968B5
:100C000041F00F01884A083A51608AE08649143160
:100C1000884208D184490839496841F0F001824A84
:100C2000083A51607DE080492831884208D17E49E8
:100C30000839496841F470617B4A083A516070E0B4
:100C400079493C31884208D177490839496841F4EB
:100C50007041754A083A516063E0734950318842E7
:100C600008D171490839496841F470216E4A083A3F
:100C7000516056E06C496431884208D16A490839AC
:100C8000496841F47001684A083A516049E0664990
:100C90007831884208D164490839496841F0706167
:100CA000614A083A51603CE06049884206D1011F20
:100CB000096841F00F01021F116032E05B491431F5
:100CC000884208D15949091F096841F0F001574A83
:100CD000121F116025E055492831884208D1534937
:100CE000091F096841F47061504A121F116018E031
:100CF0004E493C31884208D14C49091F096841F4EA
:100D000070414A4A121F11600BE048495031884235
:100D100007D14649091F096841F47021434A121F4F
:100D20001160704710B50022026847F6F0739A43CD
:100D30000C6A8B6823430C6923434C6923438C69F9
:100D40002343CC6923434C6A23438C6A23431A43CD
:100D50000260CB6843600B6883604B68C36010BD62
:100D60000021016041608160C16001614161816178
:100D7000C161016241628162704721B1026842F043
:100D80000102026004E002684FF6FE731A4002603E
:100D900070471AB103680B43036002E003688B439A
:100DA00003607047416070470146486880B27047F1
:100DB00001460020002211F0805F03D01B4B083B4E
:100DC0001A6802E0184B083B1A680A4201D0012059
:100DD00000E00020704710F0805F03D01349091F26
:100DE000086002E010490839486070470146002059
:100DF000002211F0805F03D00C4B083B1A6802E020
:100E0000094B083B1A680A4201D0012000E000208B
:100E1000704710F0805F03D00449091F086002E0AA
:100E20000149083948607047080002400804024040
:100E3000002044490860091D0860091D0860091D5B
:100E4000086041483F4914310860704700213D491E
:100E50008279002A3AD00A46126803689A430B4600
:100E60001A600A1D126803689A430B1D1A60027902
:100E700011440A6803681A430A60324A0832126849
:100E800003689A432F4B08331A601A1D12680368CF
:100E90009A432C4B0C331A604279102A0ED11A1F38
:100EA000126803681A43274B08331A601A1D126828
:100EB00003681A43234B0C331A600DE02149427931
:100EC00011440A6803681A430A6005E00279114474
:100ED0000A6803689A430A60704700210160017143
:100EE0000C21417100218171704716491031096848
:100EF0000143144A10321160704701460020114A24
:100F0000143212680A4201D0012000E0002070472C
:100F10000C49143108607047014600200022094B3B
:100F20001B6803EA0102074B14331B680B4202D013
:100F30000AB1012000E00020704702491431086026
:100F40007047000000040140FFFF0F0030B943F27A
:100F5000DB014FF0204242F8201005E043F2D201BD
:100F60004FF0204242F820106FF07042411C4FF0C9
:100F7000204343F8212011461A4602EB8002C2F8B2
:100F80000411704710280AD118214FF02042116631
:100F9000402151664FF0FC319166D16610E0182176
:100FA000F84A11604FF040014FF02042C2F884101F
:100FB0004FF0FC31F44A11604FF02042C2F88C101F
:100FC00070471820F14908604FF000004FF02041B1
:100FD000C1F8A4004FF0FC30ED49086001F10401B4
:100FE000086001F1040108607047D0E90112114363
:100FF000C268114302691143426911438269114376
:10100000C2691143026A1143426A1143826A114361
:10101000C26A1143026B11434FF02043026843F848
:1010200022108168082908D11A46016852F8211057
:1010300041F04001026843F82210416B0968426B9D
:10104000526841EA0211426B926841EA0221426B06
:10105000928941EA0241426B128A41EA0251426B93
:10106000127D41EA0261426B926911430268521C8F
:101070004FF0204343F82210C16AB1F5804F1AD1D6
:10108000816B0968826B526841EA0211826B926837
:1010900041EA0221826B128A41EA0251826B127D7F
:1010A00041EA0261826B92691143026803EB82029A
:1010B000C2F8041108E06FF070414FF0204302685D
:1010C00003EB8202C2F80411704730B50021002200
:1010D0000023446844F0080485682C43C5682C4309
:1010E00005692C43456944EA4524856944EA45314C
:1010F000C4692468C5696D6844EA0524C5692D89F9
:1011000044EA0544C5692D7B44EA0562046A246803
:10111000056A6D6844EA0524056A2D8944EA054498
:10112000056A2D7B44EA05630468102C05D14FF055
:1011300020442166A266E36607E0924C21604FF0EE
:101140002044C4F88820934C236030BD016841F0EE
:101150001001426841EA4221826841EA42318B4AE9
:101160001160C1680968C268526841EA0221C26818
:10117000128941EA0241C268127B41EA0261844A53
:101180001160016909680269526841EA0221026935
:10119000128941EA02410269127B41EA02617E4AF8
:1011A0001160416909684269526841EA0221426955
:1011B000128941EA02414269127B41EA02614FF021
:1011C0002042C2F8B0107047002101600221416046
:1011D00000218160C160016141618161C161016281
:1011E0004FF480514162490081620021C162016374
:1011F0000F21426B1160426B5160FF21426B916085
:101200000F21426BD160426B1161426B5161002131
:10121000426B91610F21826B1160826B5160FF21E3
:10122000826B91600F21826BD160826B1161826B46
:1012300051610021826B9161704710210160002192
:1012400041608160C160016141618161FC21C269CD
:101250001160C2695160C2699160C269D160026A5D
:101260001160026A5160026A9160026AD16070473F
:101270000021016041608160FC21C2681160C26888
:101280005160C2689160C268D160026911600269F0
:101290005160026991600269D160426911604269DE
:1012A0005160426991604269D160704751B14FF01D
:1012B000204252F8202042F001024FF0204343F830
:1012C000202009E04FF0204252F82020334B1A40F2
:1012D0004FF0204343F82020704799B1102808D1DF
:1012E0004FF02042126E42F004024FF020431A6683
:1012F0001DE0244A126842F004024FF02043C3F874
:10130000802014E0102809D14FF02042126E234BA8
:10131000DB1E1A404FF020431A6608E0194A126893
:101320001F4B02EA03024FF02043C3F880207047AE
:1013300040B11649096841F004014FF02042C2F85B
:10134000A01008E011490968154A01EA02014FF0AE
:101350002042C2F8A010704799B1102808D14FF070
:101360002042126E42F040024FF020431A662DE0F8
:10137000044A126842F040024FF02043C3F8802034
:1013800024E00FE0800000A0880000A0A00000A0E2
:10139000A80000A08C0000A0AC0000A0FEFF0F0081
:1013A000FBFF0F00102808D14FF02042126E684B4F
:1013B0001A404FF020431A6608E0664A1268644BF0
:1013C00002EA03024FF02043C3F880207047014631
:1013D0000020102903D14FF02042506F01E05E4AF7
:1013E0001068704710B5F2B1102807D14FF02043B4
:1013F0005B6E0B434FF02044636632E0B0F5807FB4
:1014000008D1564B1B6843EA01034FF02044C4F84F
:10141000843026E0524B1B6843EA01034FF020441E
:10142000C4F8A4301DE0102807D14FF020435B6EB4
:101430008B434FF02044636613E0B0F5807F08D102
:10144000464B1B6823EA01034FF02044C4F8843064
:1014500007E0434B1B6823EA01034FF02044C4F824
:10146000A43010BD10B5024600200023102A03D17D
:101470004FF02044636E07E0B2F5807F02D1374C15
:10148000236801E0364C23680B4201D0012000E0C4
:10149000002010BD102807D14FF02042526E8A4321
:1014A0004FF020435A6613E0B0F5807F08D12B4AF5
:1014B000126822EA01024FF02043C3F8842007E0BB
:1014C000274A126822EA01024FF02043C3F8A42001
:1014D000704770B502460020002300240025102A22
:1014E00003D14FF02046736E07E0B2F5807F02D142
:1014F0001A4E336801E01A4E336803EA010403EA26
:10150000D10514B10DB1012000E0002070BD1028FC
:1015100008D14FF02042526E22EAD1024FF0204310
:101520005A6613E0B0F5807F08D10C4A126822EAAF
:10153000D1024FF02043C3F8842007E0084A126824
:1015400022EAD1024FF02043C3F8A42070470000E4
:10155000BFFF0F00800000A0940000A0840000A046
:10156000A40000A010B50446CA48844208D1012155
:10157000042000F023FB0021042000F01FFB46E0C4
:10158000C548844208D10121082000F017FB002142
:10159000082000F013FB3AE0C048844208D1012142
:1015A000102000F00BFB0021102000F007FB2EE0C4
:1015B000BB48844208D10121202000F0FFFA00211D
:1015C000202000F0FBFA22E0B648844208D1012135
:1015D000402000F0F3FA0021402000F0EFFA16E07E
:1015E000B148844208D10121802000F0E7FA0021AF
:1015F000802000F0E3FA0AE0AC48844207D10121E0
:10160000801500F0DBFA0021A01500F0D7FA10BD1C
:1016100010B50121084600F0D1FA0021012000F0A8
:10162000CDFA10BD2DE9F04102460025002600202C
:1016300000230024002791F803C00CF00F0591F857
:1016400003C01CF0100F03D091F802C04CEA05054E
:1016500091F800C0BCF1000F31D0146800202BE0DD
:101660004FF0010C0CFA00F3B1F800C00CEA0306CD
:101670009E4220D183004FF00F0C0CFA03F7BC43BD
:1016800005FA03FC4CEA040491F803C0BCF1280FEE
:1016900006D14FF0010C0CFA00FCC2F814C00AE0AD
:1016A00091F803C0BCF1480F05D14FF0010C0CFAC2
:1016B00000FCC2F810C0401C0828D1D31460B1F857
:1016C00000C0BCF1FF0F34DD546800202EE000F1B3
:1016D000080C4FF0010808FA0CF3B1F800C00CEA4E
:1016E00003069E4221D183004FF00F0C0CFA03F742
:1016F000BC4305FA03FC4CEA040491F803C0BCF1B6
:10170000280F05D100F1080C08FA0CF8C2F8148073
:1017100091F803C0BCF1480F07D100F1080C4FF05D
:10172000010808FA0CF8C2F81080401C0828CED333
:101730005460BDE8F0814FF6FF7101800221817095
:101740000421C17070470246002093680B4201D00B
:10175000012000E0002070470146886880B2704791
:1017600002460020D3680B4201D0012000E0002097
:1017700070470146C86880B2704701617047416197
:1017800070470AB1016100E041617047C160704774
:101790004FF480320A438261816182618269826989
:1017A000704702460020424B18684FF6807318407D
:1017B00040EA021008433E4B186070473D49C8613B
:1017C0007047F0B50A46002300240021002500F0F0
:1017D0000046B6F1004F02D1354EF16901E0344EBA
:1017E0007168C0F3034583B200F44016B6F5401F9C
:1017F00008D121F070612E4E766826F070662C4F6D
:101800007E6012E000F48016B6F5801F06D1032634
:1018100006FA05F4A14341F0706106E0460D360179
:1018200003FA06F6B14341F0706122B1460D36016C
:1018300003FA06F6314300F00046B6F1004F02D13C
:101840001B4EF16101E01A4E7160F0BD30B500220F
:101850008B071C0F0F2303FA04F2154B08338C106F
:1018600053F824309343124C08348D1044F825303B
:1018700023468C1053F824308C07240F00FA04F40C
:1018800023430B4C08348D1044F8253030BD0A49F1
:101890000860704700080140000C01400010014042
:1018A0000014014000180140001C014000200140CC
:1018B0000000014000002042DC002042DB480068BC
:1018C00040F00100D949086008464068D8490840FE
:1018D000D649486008460068D6490840D3490860A0
:1018E0000846006820F4802008600846406820F41C
:1018F000FE0048604FF41F0088607047CB490968BC
:1019000021F48031C94A11601146096821F480210F
:101910001160B0F5803F03D0B0F5802F0ED106E006
:10192000C249096841F48031C04A116007E0BF49EB
:10193000096841F4A021BD4A116000E000BF00BF6A
:10194000704710B501460022002300204A11012AE9
:1019500002D1B64C236806E0022A02D1B34C236AB6
:1019600001E0B24C636A01F01F02012494401C4262
:1019700001D0012000E0002010BD70B5002400253A
:10198000002600BF3120FFF7DCFF0646641CB4F5DB
:10199000A06F01D0002EF5D03120FFF7D2FF08B1A3
:1019A000012500E00025284670BD014600209F4A21
:1019B000106820F0F80040EAC100106070479E49AE
:1019C0000860704702460020984B586820F47C104D
:1019D00042EA01031843954B5860704796490866E0
:1019E000704701460020914A506820F003000843E8
:1019F000506070478D48406800F00C007047014609
:101A000000208A4A506820F0F00008435060704778
:101A100001460020854A506820F4E0600843506089
:101A2000704701460020814A506820F4605040EA27
:101A3000C1005060704729B17C4A527A02437B4B07
:101A40005A7204E0794A527A8243784B5A7270474C
:101A50007A490860704701460020744A506820F4B3
:101A600040400843506070470021754A11706F4A2A
:101A700082F82010012802D0042808D103E00121B7
:101A80006F4A117004E005216D4A117000E000BF3B
:101A900000BF70476B49086070476449096A014399
:101AA000624A11627047674944390860704730B52F
:101AB00000210022002400235C4D6D6805F00C011C
:101AC00021B1042905D0082923D105E05E4D056028
:101AD00022E05D4D05601FE0544D6D6805F4701205
:101AE000524D6D6805F48034022505EB92421CB915
:101AF000564D554305600BE04C4D6D6815F4003FA5
:101B000003D0524D5543056002E04F4D55430560EB
:101B100002E04D4D056000BF00BF444D6D6805F00B
:101B2000F00109094A4D6B5C0568DD4045603F4D99
:101B30006D6805F4E061090A454D6B5C4568DD4060
:101B400085603A4D6D6805F46051C90A404D6B5C83
:101B50004568DD40C560354D6D6805F44041890B31
:101B60003C4D6B5CC568B5FBF3F5056130BD29B133
:101B70002E4A526902432D4B5A6104E02B4A5269A6
:101B800082432A4B5A61704729B1284A926902431D
:101B9000264B9A6104E0254A92698243234B9A615D
:101BA000704729B1214AD2690243204BDA6104E02F
:101BB0001E4AD26982431D4BDA61704729B11B4A24
:101BC000D2680243194BDA6004E0184AD2688243B3
:101BD000164BDA60704729B1144A12690243134B5D
:101BE0001A6104E0114A12698243104B1A6170476E
:101BF00014494039086070470F49C86470470B4961
:101C0000C87170470948406A40F0807007494862CF
:101C1000704701460020054A92680A4201D001201F
:101C200000E00020704701498872704700100240B0
:101C30000000FFF8FFFFF6FE00004242D8004242DB
:101C4000201002408004424200127A0000093D0048
:101C5000640000207400002010B50446BE48844291
:101C600008D101218014FFF7A9FF0021A014FFF77C
:101C7000A5FF16E0B948844208D101210014FFF7FE
:101C8000AAFF00212014FFF7A6FF0AE0B44884420F
:101C900007D10121C013FFF79EFF0021E013FFF7DA
:101CA0009AFF10BD10B50022028802F441520B8841
:101CB0004C8823438C882343CC8823430C892343BB
:101CC0004C8923438C892343CC8923431A430280C4
:101CD000838B4FF2FF74234083830B8A038210BDF2
:101CE0002DE9F04F85B005460C464FF0000902275C
:101CF0004FF000084FF0010B0026B246A88B4FF2C0
:101D000040010840A88302202884B5F81C90A068F0
:101D1000022801D100BF38E0A08810B94FF0010BB4
:101D200001E04FF0020B8D48854200D100E000BF7A
:101D30006846FFF7BCFEDDF800A0E088B0F5007F44
:101D40000AD14FEA1A2000EB80004000A168B0FBE6
:101D5000F1F0401D86B20BE04FEA4B10BAFBF0F0F9
:101D600000EB80004000A168B0FBF1F0401D86B29E
:101D70000A20B6FBF0F606F00108A6EB0800C0F357
:101D80004F074FF6FF7000EA0828022F01DBFF2FF4
:101D900002DD02274FF00008E08840EA08003843DF
:101DA0002884A088A18908436188084321880843C2
:101DB00040F4006040EA0909A5F81C9005B0BDE8B0
:101DC000F08F0021018041808180C18001814181AB
:101DD0008181C181072101827047002101804180FA
:101DE0008180C1800221816000218181704721B101
:101DF000028842F04002028004E002884FF6BF737E
:101E00001A400280704721B1828B42F48062828343
:101E100004E0828B4FF6FF331A408283704730B55F
:101E2000002400230C110125A540ABB21AB185880E
:101E30001D43858002E085889D43858030BD1AB1B1
:101E400083880B43838002E083888B4383807047C1
:101E500081817047014688897047A1F57E42FF3A2B
:101E600004D0028842F48072028004E002884FF6B7
:101E7000FF631A400280704721B1828842F0040259
:101E8000828004E082884FF6FB731A40828070479C
:101E900002884FF2FF731A40028002880A430280D0
:101EA0007047018841F480510180704721B1028858
:101EB00042F40052028004E002884DF6FF731A409B
:101EC0000280704702460020012901D0108B00E0FB
:101ED000908A70470146088A7047B1F5804F04D157
:101EE000028842F48042028004E002884BF6FF73CD
:101EF0001A40028070470246002013890B4201D02D
:101F0000012000E000207047CA4302817047F0B50D
:101F10000246002000240023002501F00F070126BF
:101F2000BE40B4B20B1101269E40B3B2968806EAB9
:101F300003051689264202D00DB1012000E00020E1
:101F4000F0BD10B5002201F00F040123A3409AB2A6
:101F5000D343038110BD0000003001400038004031
:101F6000003C004010B50446FE48844208D10121DF
:101F7000C014FFF723FE0021E014FFF71FFEC4E0AA
:101F8000B4F1804F08D101210846FFF724FE00215B
:101F90000120FFF720FEB8E0F348844208D1012178
:101FA0000220FFF718FE00210220FFF714FEACE02C
:101FB000EE48844208D101210420FFF70CFE0021E5
:101FC0000420FFF708FEA0E0E948844208D101217F
:101FD0000820FFF700FE00210820FFF7FCFD94E039
:101FE000E448844208D101211020FFF7F4FD0021CC
:101FF0001020FFF7F0FD88E0DF48844208D101217E
:102000002020FFF7E8FD00212020FFF7E4FD7CE021
:10201000DA48844208D101214014FFF7CFFD0021A6
:102020006014FFF7CBFD70E0D548844209D101214F
:10203000C804FFF7C3FD00214FF40020FFF7BEFDE9
:1020400063E0D048844209D101210805FFF7B6FDBD
:1020500000214FF48010FFF7B1FD56E0CA488442DA
:1020600009D101214805FFF7A9FD00214FF4001017
:10207000FFF7A4FD49E0C548844208D10121402072
:10208000FFF7A9FD00214020FFF7A5FD3DE0C04876
:10209000844208D101218020FFF79DFD002180208E
:1020A000FFF799FD31E0BB48844208D1012180153A
:1020B000FFF791FD0021A015FFF78DFD25E0B64843
:1020C000844209D101210804FFF778FD00214FF473
:1020D0008030FFF773FD18E0B048844209D1012138
:1020E0004804FFF76BFD00214FF40030FFF766FD59
:1020F0000BE0AB48844208D101218804FFF75EFD64
:1021000000214FF48020FFF759FD10BD0022028806
:10211000944B98420ED0994B98420BD0B0F1804F1F
:1021200008D0914B984205D0904B984202D0904BEA
:10213000984204D14FF68F731A404B881A438D4B47
:10214000984207D08C4B984204D04FF6FF431A4078
:10215000CB881A4302808B8883850B880385814B4B
:1021600098420BD0854B984208D08B4B984205D0B3
:102170008A4B984202D08A4B984201D10B7A03864F
:1021800001238382704770B5002400220023058C50
:102190004FF6FE7635400584028C8388048B4FF61B
:1021A0008F752C40B51E2C400D882C43751E2A407F
:1021B0000D892A434D882A436A4DA8420BD06F4DA2
:1021C000A84208D0744DA84205D0744DA84202D050
:1021D000734DA84213D14FF6F7752A404D892A4313
:1021E0004FF6FB752A408D882A434FF6FF652B403A
:1021F0004FF6FF552B408D892B43CD892B43838090
:102200000483CD888586028470BD70B500240022C9
:102210000023058C4FF6EF7635400584028C8388C9
:10222000048B48F6FF752C404FF6FF452C400D8877
:102230004FF6FF7606EA05252C434FF6DF752A4058
:102240000D8906EA05152A434D8806EA05152A4335
:10225000444DA84202D0494DA8421DD14FF67F758A
:102260002A404D894FF6FF7606EA05152A434FF6B8
:10227000BF752A408D8806EA05152A434FF6FF35BB
:102280002B404FF2FF752B408D8906EA85052B43C5
:10229000CD8906EA85052B4383800483CD88058795
:1022A000028470BD70B5002400220023058C4FF617
:1022B000FF6635400584028C8388848B4FF68F75CA
:1022C0002C404FF6FC752C400D882C434FF6FF55E3
:1022D0002A400D894FF6FF7606EA05252A434D88E8
:1022E00006EA05252A431F4DA84202D0234DA842E5
:1022F0001DD14FF2FF752A404D894FF6FF7606EA51
:1023000005252A434FF6FF352A408D8806EA052524
:102310002A434EF6FF752B404DF6FF752B408D89F5
:1023200006EA05152B43CD8906EA05152B43838064
:102330008483CD888587028470BD70B50022002318
:102340000024058C4EF6FF7635400584038C848886
:10235000828B48F6FF752A404FF6FF452A400D88CC
:1023600020E00000002C0140000400400008004074
:10237000000C0040001000400014004000340140F8
:10238000004C014000500140005401400018004042
:10239000001C00400020004000400140004401407B
:1023A000004801404FF6FF7606EA05252A434DF620
:1023B000FF752B400D8906EA05352B434D8806EA4B
:1023C00005352B43FA4DA84202D0FA4DA84208D158
:1023D0004BF6FF752C408D894FF6FF7606EA851582
:1023E0002C4384808283CD88A0F84050038470BD44
:1023F000828B4FF2FF331A408283828B4FF6FF733A
:1024000003EA01231A4382837047F0B50C46154650
:10241000002200210026078C4EF6FF7C07EA0C07FD
:102420000784828B018C4FF6FF7707EA043640F66B
:10243000FF473A404FF6FF7707EA05273A434FF642
:10244000FF7707EA03373A43D94FB8420ED0D94F46
:10245000B8420BD0B0F1804F08D0D74FB84205D06A
:10246000D64FB84202D0D64FB84206D14DF6FF77CC
:10247000394046F48057394305E047F6FF57394065
:1024800044F48057394382830184F0BD828B4FF638
:10249000F3731A408283828B0A4382837047F0B5BC
:1024A0000C461546002200210026078C4FF6FF6CD3
:1024B00007EA0C070784828B018C4FF6FF7707EA47
:1024C00004264FF60C773A404FF6FF7707EA0317DA
:1024D0002F433A43B64FB8420ED0B64FB8420BD056
:1024E000B0F1804F08D0B44FB84205D0B34FB842D6
:1024F00002D0B34FB84206D14FF6FF57394046F4E9
:102500008077394305E04FF2FF57394044F4807734
:10251000394382830184F0BD028B4FF2FF331A40AE
:102520000283028B4FF6FF7303EA01231A430283EF
:102530007047F0B50C461546002200210026078C96
:102540004FF6EF7C07EA0C070784028B018C4FF6ED
:10255000FF7707EA041640F6FF473A404FF6FF7749
:1025600007EA03373A434FF6FF7707EA05273A436E
:102570008F4FB8420ED08F4FB8420BD0B0F1804F82
:1025800008D08D4FB84205D08C4FB84202D08C4F46
:10259000B84206D14FF6DF77394046F0100739438D
:1025A00005E04FF65F77394044F010073943028366
:1025B0000184F0BD028B4FF6F3731A400283028B45
:1025C0000A4302837047F0B50C46154600220021ED
:1025D000068C4FF6FE773E400684028B018C4FF648
:1025E0000C7632407E1C06EA03162E433243704EB0
:1025F000B0420ED06F4EB0420BD0B0F1804F08D039
:102600006D4EB04205D06D4EB04202D06C4EB0421D
:1026100006D14FF6FD76314044F00106314305E026
:102620004FF6F576314044F00106314302830184D0
:10263000F0BD70B505460C465D4885420ED05D483C
:1026400085420BD0B5F1804F08D05B48854205D05C
:102650005A48854202D05A48854200D100E000BF66
:10266000208850B92389A28861882846FFF7ABFFEC
:10267000E1882846FFF79EFF25E0208804280AD13C
:102680002389A28861882846FFF753FFE1882846FE
:10269000FFF742FF17E0208808280AD12389A28883
:1026A00061882846FFF7FBFEE1882846FFF7EEFE2B
:1026B00009E02389A28861882846FFF7A6FEE18801
:1026C0002846FFF795FE70BD2DE9F04105460C4602
:1026D00000260127608808B9022600E00026A088AD
:1026E000012801D1022700E001272088A0B9238911
:1026F000A28861882846FFF766FFE1882846FFF731
:1027000059FF23893A4631462846FFF712FFE188F0
:102710002846FFF701FF13E02389A2886188284635
:10272000FFF707FFE1882846FFF7F6FE23893A46C0
:1027300031462846FFF747FFE1882846FFF73AFF72
:10274000BDE8F0810A884B881A438B881A43CB88EE
:102750001A430B891A434B891A438B891A43A0F8F1
:10276000442070474FF6FF71818000210180C180B5
:102770004180017270470021018041808180C180C9
:10278000018141818181C1817047002101804180A7
:10279000012181800021C1800181704700210180D9
:1027A00041808180C1800181418181817047000029
:1027B000002C0140003401400004004000080040AB
:1027C000000C004021B1028842F00102028004E0C6
:1027D00002884FF6FE731A400280704731B1B0F89C
:1027E000442042F40042A0F8442005E0B0F8442020
:1027F000C2F30E02A0F8442070471AB183890B433C
:10280000838102E083898B43838170478182704793
:1028100041EA0203A0F8483070471AB183890B439C
:10282000838102E083898B438381704701894FF65E
:10283000F8721140018170470A46002101894FF664
:102840008F73194011430181704730B504460D461E
:1028500029462046FFF7F0FF208940F0070020813D
:1028600030BD2DE9F04104460D4616461F46602D49
:1028700006D13B46012231462046FFF75AFE05E0CD
:102880003B46012231462046FFF79DFE2946204661
:10289000FFF7D2FF208940F007002081BDE8F081DA
:1028A00030B50C4600210189C9B24FF6FF7505EA23
:1028B0000325154325432943018130BD2DE9F0410E
:1028C00005460E4617469846002443463A4631468A
:1028D0002846FFF7E5FF2C894FF6F870044044F0D6
:1028E00007044FF68F70044044F070042C81BDE85B
:1028F000F081F0B504460D4616461F463B4632466B
:1029000029462046FFF7CCFF208940F480402081F3
:10291000F0BD0185828270470A46002101884FF68A
:102920008F731940114301807047F0B50C4615466E
:102930001E460021002200230189028B038C4FF6E2
:10294000F877394021434FF6FC473A4040F20117EF
:102950003A434FF6DD773B404FF6FF7707EA06171D
:102960002F433B43018102830384F0BD0A460021CB
:10297000018B4FF68F7319401143018370470A464C
:102980000021018B48F6FF7319404FF6FF7303EAED
:1029900002231943018370470A460021818B4FF6B9
:1029A0008F7319401143818370470A460021818B40
:1029B00048F6FF7319404FF6FF7303EA02231943E9
:1029C0008183704721B1028842F08002028004E0D6
:1029D00002884FF67F731A400280704721B18288C7
:1029E00042F00402828004E082884FF6FB731A40B2
:1029F0008280704721B1828842F00802828004E020
:102A000082884FF6F7731A408280704721B182881E
:102A100042F00102828004E082884FF6FE731A4081
:102A2000828070470A460021018B4FF6F7731940E8
:102A30001143018370470A460021018B4FF2FF7357
:102A400019404FF6FF7303EA0223194301837047CD
:102A50000A460021818B4FF6F77319401143818399
:102A600070470A460021818B4FF2FF7319404FF6E1
:102A7000FF7303EA02231943818370470A4600214A
:102A8000018B4FF6FB7319401143018370470A46CF
:102A90000021018B4FF6FF3319404FF6FF7303EA15
:102AA00002231943018370470A460021818B4FF6A8
:102AB000FB7319401143818370470A460021818BC3
:102AC0004FF6FF3319404FF6FF7303EA0223194311
:102AD000818370470A460021018B4FF67F731940AE
:102AE0001143018370470A460021018BC1F30E0197
:102AF0004FF6FF7303EA02231943018370470A4626
:102B00000021818B4FF67F731940114381837047F9
:102B10000A460021818BC1F30E014FF6FF7303EAD1
:102B200002231943818370470A460021018C4FF626
:102B3000FD7319401143018470470A460021018C3E
:102B40004FF6F77319401143018470470A4600217C
:102B5000018C4FF6DF7319404FF6FF7303EA02133F
:102B60001943018470470A460021018C4FF67F7398
:102B700019404FF6FF7303EA0213194301847047AB
:102B80000A460021018C4FF6FF5319404FF6FF73A0
:102B900003EA02231943018470470A460021018C8D
:102BA0004FF2FF7319404FF6FF7303EA02231943F4
:102BB000018470470A460021018C4DF6FF731940CD
:102BC0004FF6FF7303EA023319430184704730B5AF
:102BD000002301248C40A3B2048C9C430484048C05
:102BE00002FA01F5ADB22C43048430BD30B50023A8
:102BF00004248C40A3B2048C9C430484048C02FA09
:102C000001F5ADB22C43048430BD70B503460020FD
:102C100000241846183001258D40ACB21D8CA54308
:102C20001D8409B1082909D100EB6100056825F070
:102C3000700505600568154305600EE00D1FC5F3BE
:102C40004E052844056825F4E045056005684FF603
:102C5000FF7606EA02263543056070BD21B1028881
:102C600042F00202028004E002884FF6FD731A402F
:102C70000280704721B1028842F00402028004E021
:102C800002884FF6FB731A400280704721B1828898
:102C900042F08002828004E082884FF67F731A40FF
:102CA0008280704702884FF6F7731A4002800288CC
:102CB0000A430280704782884FF68F731A408280E1
:102CC00082880A438280704702894FF6F8731A405F
:102CD000028102890A430281704702894FF67F739D
:102CE0001A40028102890A43028170478184704739
:102CF000818570478186704701877047818770475B
:102D0000A0F84010704702884FF6FF431A40028037
:102D100002880A43028070470146888E7047014648
:102D2000088F70470146888F70470146B1F8400010
:102D300070470146888C70470146088D70470246EF
:102D40000020138A0B4201D0012000E000207047D0
:102D5000CA430282704730B5024600200023002497
:102D6000158A05EA0103958905EA010413B10CB13E
:102D7000012000E0002030BDCA43028270470000FD
:102D800010B50446FB48844209D101218803FEF7AF
:102D900015FF00214FF48040FEF710FF32E0F648A7
:102DA000844209D101214804FEF715FF00214FF4A8
:102DB0000030FEF710FF25E0F048844209D10121E0
:102DC0008804FEF708FF00214FF48020FEF703FF80
:102DD00018E0EB48844209D10121C804FEF7FBFE4C
:102DE00000214FF40020FEF7F6FE0BE0E548844298
:102DF00008D101210805FEF7EEFE00214FF48010F6
:102E0000FEF7E9FE10BD2DE9F04786B005460E46F7
:102E10000024A24600BFA1460027B08900B100BF30
:102E20002F462C8A4CF6FF700440F08804432C8215
:102E3000AC894EF6F3100440B0883189084371899B
:102E400008430443AC81AC8A4FF6FF400440B0898C
:102E50000443AC8201A8FEF72AFEC648874202D18D
:102E6000DDF810A001E0DDF80CA0A88910F4004FF7
:102E700008D00AEBCA0000EB0A1031684900B0FB29
:102E8000F1F807E00AEBCA0000EB0A10316889008C
:102E9000B0FBF1F86420B8FBF0F0040120096421D4
:102EA00001FB1089A88910F4004F08D0322000EBF4
:102EB000C900B0FBF1F000F00700044308E0322045
:102EC00000EB09106421B0FBF1F000F00F000443A7
:102ED0002C8106B0BDE8F0874FF416510160002147
:102EE0008180C18001810C21418100218181704755
:102EF00010B502460020108A4FF2FF0318400B88DD
:102F00004C8823438C882343CC8823431843108266
:102F100010BD0021018041808180C180704721B1B6
:102F2000828942F40052828104E082894DF6FF7367
:102F30001A4082817047F0B5034600240026002520
:102F40000020A1F510676A3F00D100BF1846C1F309
:102F5000421401F01F06012707FA06F5012C01D1E2
:102F60000C3004E0022C01D1103000E014301AB112
:102F700007682F43076002E00768AF430760F0BDB2
:102F80001AB1838A0B43838202E0838A8B43838254
:102F90007047028A4FF6F0731A400282028A0A438F
:102FA0000282704782894FF2FF731A4082818289C0
:102FB0000A438281704721B1828942F002028281F4
:102FC00004E082894FF6FD731A4082817047028ABD
:102FD0004FF6DF731A400282028A0A430282704768
:102FE00021B1028A42F48042028204E0028A4BF656
:102FF000FF731A4002827047C1F308028280704753
:1030000001468888C0F308007047818941F00101BA
:1030100081817047028BD2B20283028B42EA012285
:1030200002837047028B02F47F420283028B0A43C1
:103030000283704721B1828A42F02002828204E03A
:10304000828A4FF6DF731A408282704721B1828AEA
:1030500042F01002828204E0828A4FF6EF731A4037
:103060008282704721B1828A42F00802828204E0A3
:10307000828A4FF6F7731A408282704721B18289A3
:1030800042F40042828103E08289C2F30E0282810F
:10309000704721B1828A42F40062828204E0828A0F
:1030A0004FF2FF731A4082827047828A4FF6FB7399
:1030B0001A408282828A0A438282704721B1828AC0
:1030C00042F00202828204E0828A4FF6FD731A40C7
:1030D0008282704702460020B1F5007F00D100BF18
:1030E00013880B4201D0012000E00020704701F45A
:1030F0000072B2F5007F00D100BFCA430280704762
:1031000070B502460024002300250020A1F51066BA
:103110006A3E00D100BFC1F3421501F01F03012632
:1031200006FA03F3012D02D19689334006E0022D01
:1031300002D1168A334001E0968A33400C120126F0
:1031400006FA04F41688344013B10CB1012000E0F3
:10315000002070BD10B500220023A1F510646A3C68
:1031600000D100BF0A1201249440A3B2DC430480C2
:1031700010BD0000003801400044004000480040FD
:10318000004C0040005000407FB505460C46012130
:103190000420FEF706FDADF80850ADF8044000200D
:1031A000ADF80A00ADF8060001A98448FEF7AEFFAD
:1031B000012211468148FFF720FB1E208DF80000F8
:1031C00000208DF8010003208DF8020001208DF809
:1031D00003006846FDF7C9F901217848FFF7F2FAC4
:1031E0007FBD7FB505460C4601210220FEF7D9FCC4
:1031F000ADF80850ADF804400020ADF80A00ADF875
:10320000060001A96E48FEF781FF012211466C48B5
:10321000FFF7F3FA1D208DF8000000208DF8010063
:1032200003208DF8020001208DF803006846FDF7A9
:103230009CF901216248FFF7C5FA7FBD10B5012155
:103240005E48FFF788FD002843D000F0C1FA40F641
:10325000E44100FB01F4E01704EB1050C0F30F3021
:1032600058490880084600885749584A127821F87A
:10327000120056480078401CC0B254490870F02132
:1032800090FBF1F201FB12005049087050484D4983
:10329000098800EB113000784E4908704C484949C4
:1032A0000988C1F30321405C4A49487048484549B0
:1032B0000978C1F30311405C4649887041480078A1
:1032C00000F00F004249085C4249C870424801F0D2
:1032D000F4FB01213948FFF74FFD10BD38B500243C
:1032E00000207D234FF48C7228210090084601F0C5
:1032F000BAF940F21F5078234FF48C7219460090AF
:10330000282001F0C8F81F207D2364222821009086
:10331000104601F0C0F81F207D23A0222821009034
:10332000104601F0B8F81F207D23DC2228210090F0
:10333000104601F0B0F847F6FF7024490090097874
:1033400001F128022149097801F128007D23282173
:1033500001F0A1F800BF11E01B4830F81400322141
:1033600090FBF1F0C0F1780085B24FF47842294625
:1033700004F1280001F04EF8601CC4B2F02CEBDB25
:1033800038BD08B501210E48FFF7E5FC88B14FF6BE
:10339000FF701423AF220A210090962001F063F9F8
:1033A0000023084802880A21962001F09AFAFFF7C4
:1033B00095FF01210248FFF7DFFC08BD000800402F
:1033C0000004004078000020C00100207A000020A6
:1033D0007B000020400000204400024030B585B052
:1033E00005460C4601210846FEF7DBFB01210420BF
:1033F000FEF7CAFB0120ADF8100028208DF813005D
:1034000004A94C48FEF70EF901214A48FEF7B7F926
:10341000ADF80850ADF804400020ADF80A00ADF852
:10342000060001A94FF08040FEF770FE00204249DF
:1034300008804880012088800020C88008814FF0E3
:103440008040FFF7F6F81C208DF8000002208DF870
:10345000010000208DF8020001208DF8030068466D
:10346000FDF783F8012203219007FFF7C6F9012138
:103470008807FFF7A7F905B030BD10B52F480078D1
:1034800010F0800F4FD101218807FFF764FCD0B105
:103490002A48007810F0400F15D02848007800F036
:1034A0003F003F280AD12548007840F0800023499A
:1034B00008704FF6FF702249088004E01F4800782A
:1034C000401C1E49087002214807FFF744FC50B316
:1034D0001A48007810F0400F11D01848007840F0DA
:1034E0008000164908704FF08040FFF715FC144922
:1034F000088000214FF08040FFF716FB13E000200A
:103500000E4908700E49088000214FF08040FFF7F7
:10351000EDFB0A48007840F040000849087002219D
:103520004807FFF701FB03214FF08040FFF724FC21
:1035300010BD000000080140A00300209C000020F6
:103540009E00002000B585B001210420FEF71CFB81
:1035500001214807FEF725FB1020ADF810000020E0
:103560008DF8130003208DF8120004A92348FEF7FC
:1035700059F810212148FEF700F900200090019031
:1035800002900220039069460020FDF780FA012195
:103590000020FDF799FA00210846FDF7F6FA05B07C
:1035A00000BD2DE9F0470446204603F07DFE81462C
:1035B0001349484603F07EFD81464FF08B41484653
:1035C00003F086FE824603F0E7FC07464FF06632C2
:1035D0000C4B03F035FB054603F000FB81464FF032
:1035E0007E51484603F040FF064603F025FE85B2B3
:1035F00029460020FDF7C9FABDE8F0870008014020
:1036000000007A4466660A4000B587B001214FF495
:103610000170FEF7B9FA4FF40040FEF71CFA0220E1
:10362000ADF8040000208DF8070001A96F48FDF7F0
:10363000F9FF6F48FDF702F8002002908DF80C00AA
:103640008DF80D004FF460200490002005900120BB
:103650008DF8180002A96648FDF717F801216448A3
:10366000FDF73FF86248FDF75EF800BF6048FDF7E0
:103670005FF80028FAD15E48FDF764F800BF5C48A7
:10368000FDF765F80028FAD101215948FDF769F8DE
:103690000723012211465648FDF78FF801215448AF
:1036A000FDF75FF807B000BD00B587B001214FF40A
:1036B0000470FEF769FA4FF40040FEF7CCF90F20D2
:1036C000ADF8040000208DF8070001A94948FDF776
:1036D000A9FF4748FCF7B2FF0020029001208DF8B7
:1036E0000C008DF80D004FF4602004900020059030
:1036F00004208DF8180002A93D48FCF7C6FF0723F7
:1037000001220A213A48FDF758F8072302220B212B
:103710003748FDF752F8072303220C213448FDF700
:103720004CF8072304220D213148FDF746F801210A
:103730002F48FCF7E1FF01212D48FCF7D2FF2C4870
:10374000FCF7F1FF00BF2A48FCF7F2FF0028FAD18E
:103750002748FCF7F7FF00BF2548FCF7F8FF0028D3
:10376000FAD101212248FCF7FCFF07B000BD70B57B
:103770000446002500BF02211D48FDF74DF9002831
:10378000F9D01B48FDF780F80546072301222146A2
:103790001748FDF712F801211548FCF7E2FF28460B
:1037A00070BD2DE9F04107460C460025002608E0D3
:1037B0003846FFF7DCFF0544052001F06DFA701C68
:1037C000C6B2A642F4DBB5FBF4F080B2BDE8F081EE
:1037D0000022002105E0084830F811000244481C8E
:1037E000C1B20429F7DBC2F38F0070470008014023
:1037F00000240140001001404600002000B587B0C1
:1038000001210920FEF7C0F901218803FEF7C9F95B
:103810004FF46040ADF8180018208DF81B0003200D
:103820008DF81A0006A94A48FDF7FCFE0021494818
:10383000FEF7DDFA0020ADF804004FF48270ADF819
:1038400006000020ADF808000220ADF80A000120B3
:10385000ADF80C004002ADF80E002820ADF81000C5
:103860000020ADF812000720ADF8140001A9394876
:10387000FEF718FA01213748FEF7B9FA07B000BD84
:1038800008B501212820FEF77FF94FF48050ADF8EC
:10389000000010208DF8030003208DF80200694617
:1038A0002D48FDF7BFFE4FF480512B48FDF765FF13
:1038B0004FF48050ADF8000010208DF80300032075
:1038C0008DF8020069462248FDF7ACFE4FF48051A6
:1038D0001F48FDF752FF4FF40050ADF800001020D4
:1038E0008DF8030003208DF8020069461A48FDF7A1
:1038F00099FE4FF400511848FDF73FFF08BD70B521
:103900000546002405E0601CC4B2C82C01DD00207F
:1039100070BD02210F48FEF7EEFA0028F3D02946C9
:103920000C48FEF795FA002405E0601CC4B2C82CD0
:1039300001DD0020ECE701210648FEF7DCFA002853
:10394000F3D00448FEF786FAC5B22846E0E7000047
:10395000000C0140003800400014014070B50646DC
:1039600000244FF48051FD48FDF709FF3046FFF772
:10397000C6FF062001F06DF90020FFF7C0FF0546E5
:103980004FF6FF7000EA0524012001F062F90020E3
:10399000FFF7B5FF05462C4324114FF48051EF4843
:1039A000FDF7EBFE204670BD2DE9F04186B0804664
:1039B0000026002407E04046FFF7D0FF01A921F8C8
:1039C0001400601C84B20A2CF5DB00241BE0601C90
:1039D00085B214E001A830F8140001A931F81510DF
:1039E00088420ADD01A830F8147030F8150001A9EA
:1039F00021F8140001A820F81570681C85B20A2D62
:103A0000E8DB601C84B2092CE1DB032406E001A89A
:103A100030F81400304486B2601C84B2072CF6DB08
:103A20003046F11706EB91718F10384606B0BDE8AD
:103A3000F0812DE9F047CA48008803F035FC814643
:103A40009020FFF7B1FFC7490988A0EB0108404665
:103A500003F012FC0746C4480168384603F02AFB0D
:103A60000646494603F0C4FA054603F0E5FB84B276
:103A70002046BDE8F0872DE9F047BC48008803F0F8
:103A800013FC8146D020FFF78FFFB9490988A0EBCE
:103A90000108404603F0F0FB0746B6480168384687
:103AA00003F008FB0646494603F0A2FA054603F078
:103AB000C3FB84B22046BDE8F0871FB5012140F268
:103AC0000110FEF761F88020ADF80C0048208DF859
:103AD0000F0002208DF80E0003A9A748FDF7A2FDF4
:103AE00007210620FDF7B2FE8020009000208DF80F
:103AF00004000C208DF8050001208DF806006846B2
:103B0000FDF7A4F98020FDF718FA17208DF80800BA
:103B100001208DF8090003208DF80A0001208DF89E
:103B20000B0002A8FCF721FDFFF768FEFFF7A8FED7
:103B30001FBDFEB58020019000208DF808000C20EC
:103B40008DF8090000208DF80A0001A8FDF77EF924
:103B50004FF6FF7000F047FC002388A214216E206E
:103B600000F09EFE41F2883001F096F84FF4784262
:103B70001421084600F031FE00BF80217E48FDF789
:103B8000E2FD0028F9D123E09020FFF70DFF7F49E7
:103B90000880D020FFF708FF7D4908807B48028815
:103BA00000235021962000F09CFE794802880023D3
:103BB0006E21962000F095FEC82001F06DF84FF6BA
:103BC000FF707823C82250210090962000F04BFD12
:103BD00080216948FDF7B7FDD0F10100D4D14FF441
:103BE000784214214FF4967000F0F7FD4FF6FF7203
:103BF0001421084600F0F1FD00BF80215E48FDF76A
:103C0000A2FD0028F9D123E09020FFF7CDFE5F4907
:103C10004880D020FFF7C8FE5D4948805B48428855
:103C200000235021962000F05CFE59484288002372
:103C30006E21962000F055FEC82001F02DF84FF6B9
:103C4000FF707823C82250210090962000F00BFDD1
:103C500080214948FDF777FDD0F10100D4D14C49CE
:103C600049884B4A1288881A01D4014600E0414233
:103C70003C2913DD4FF6FF7000F0B5FB002345A291
:103C800014216E2000F00CFE41F2883001F004F89F
:103C90004FF6FF7000F0A7FB0120FEBD4FF4784205
:103CA000DC21142000F099FD4FF6FF7214214FF42F
:103CB000967000F092FD00BF80212F48FDF743FD74
:103CC0000028F9D123E09020FFF76EFE2F4988806D
:103CD000D020FFF769FE2E4988802C488288002377
:103CE0005021962000F0FDFD2948828800236E2196
:103CF000962000F0F6FDC82000F0CEFF4FF6FF70D2
:103D00007823C82250210090962000F0ACFC80213E
:103D10001948FDF718FDD0F10100D4D11B4989885D
:103D20001A4A1288881A01D4014600E041425029FB
:103D300038DD4FF6FF7000F056FB002315A214216A
:103D40006E2000F0ADFD41F2883000F0A5FF4FF687
:103D5000FF7000F048FB01209FE70000000C0140CD
:103D6000AC000020A8000020A0000020AE00002031
:103D7000AA000020A40000200020014041646A75D0
:103D800073746420426567696E000000B40300200C
:103D9000AA03002041646A75737464204661696CEB
:103DA000000000004FF47842DC214FF4967000F0E0
:103DB00014FD4FF6FF72DC21142000F00EFD00BF51
:103DC0008021B948FDF7BFFC0028F9D123E09020FD
:103DD000FFF7EAFDB549C880D020FFF7E5FDB449FB
:103DE000C880B248C28800235021962000F079FD97
:103DF000AF48C28800236E21962000F072FDC820D3
:103E000000F04AFF4FF6FF707823C822502100903F
:103E1000962000F028FC8021A348FDF794FCD0F107
:103E20000100D4D1A24A9288A14BDB88D11A01D4D7
:103E30000A4600E04A423C2A0ADC9C4A52889B4BD4
:103E4000DB88D01A01D4024600E04242502A14DD39
:103E50004FF6FF7000F0C7FA0023AFF2C80214213A
:103E60006E2000F01DFD41F2883000F015FF4FF686
:103E7000FF7000F0B8FA01200FE74FF47842782184
:103E8000A02000F0AAFC4FF6FF72DC214FF49670E0
:103E900000F0A3FC00BF80218348FDF754FC0028FC
:103EA000F9D10CE09020FFF77FFD80490881D020F8
:103EB000FFF77AFD7E490881C82000F0EDFE8021E1
:103EC0007948FDF740FCD0F10100EBD178494988F1
:103ED000774AD288881A03F0CFF90746754903F06C
:103EE000E9F8044672490988714A9288881A03F0F1
:103EF000C3F907466F4903F0DDF80646214603F093
:103F000077F805464FF0804103F0D4F86A4908601D
:103F100066498988654AD288881A03F0ADF9074650
:103F2000664903F0C7F80446604909885F4A528829
:103F3000881A03F0A1F90746604903F0BBF805466B
:103F4000214603F055F806464FF0804103F0B2F8E1
:103F50005B490860A0205B49088078205A490880A6
:103F600053480089594908805048008958490880B9
:103F70004FF6FF7000F037FA002356A214216E208E
:103F800000F08EFC41F2883000F086FE4FF6FF70A4
:103F90002323C822142100906E2000F064FB00232C
:103FA00050A214216E2000F07BFC802001900020A4
:103FB0008DF808000C208DF8090001208DF80A000A
:103FC00001A8FCF743FF8020FCF7B7FF00F0ACFC32
:103FD000002062E638B557E00025FFF72AFD0446C9
:103FE000FFF749FD0546282C24DD782C22DA8C2D9C
:103FF00020DDC82D1EDA3D48008840F6E4418842A5
:1040000004DA3A4800880A3038490880374800887E
:10401000FFF7C7FA4FF6FF7014234B220A210090D6
:10402000322000F020FB0023304802880A21322091
:1040300000F057FCC82C23DDB4F58C7F20DA8C2DE2
:104040001EDDC82D1CDA29480088002804DD274819
:1040500000880A382549088024480088FFF7A1FA1B
:104060004FF6FF7014234B220A210090322000F0FB
:10407000FAFA00231D4802880A21322000F031FCA0
:10408000642000F009FE00BF80210748FDF75BFBBC
:10409000D0F10100A0D138BD10B5FFF79BFF802003
:1040A000FCF74BFF10BD000000200140B4030020CE
:1040B000AA03002000008C43A00000200000484319
:1040C000A4000020AC000020AE000020A8000020CA
:1040D000AA00002041646A7573746420446F6E65A1
:1040E0000000000054657374696E6700B000002022
:1040F0004FF0D84210805180704701464FF0D840B1
:10410000018040884FF0D8404088704700B597B094
:1041100002200190002002900520039000200490CE
:10412000059006904FF080500790062008900020E0
:10413000099008200A9010200B9000200C900E90FF
:104140000F9010904FF48050119000201290139017
:10415000149001A81590169008A8FCF746FF0121BD
:104160000620FDF7A3F817B000BD38B54FF47A74F8
:1041700001210802FDF7FBFC01214FF4F070FDF76F
:1041800003FD4CF23370ADF8000003208DF80200FF
:1041900018208DF803006946FC48FDF743FA4FF6F6
:1041A000C070ADF800006946F948FDF73BFA012000
:1041B000ADF800006946F748FDF734FA4FF4805037
:1041C000ADF800006946F448FDF72CFA4FF40060A2
:1041D000ADF8000003208DF8020010208DF80300D8
:1041E0006946EA48FDF71EFA4FF40061E748FDF71B
:1041F000C6FA00BF2000A4F101018CB2FAD14FF43D
:104200000061E248FDF7B9FA38BD10B5FFF7ADFF20
:10421000FFF77CFF0020FFF770FFE049088047F6BA
:10422000F001E520FFF764FF4FF480710120FFF7F4
:104230005FFF4FF4E0610220FFF75AFF41F23001C7
:104240000320FFF755FF00210420FFF751FF40F244
:1042500002210820FFF74CFF00210920FFF748FF4B
:1042600000210A20FFF744FF00210C20FFF740FF48
:1042700000210D20FFF73CFF00210F20FFF738FF42
:1042800000211020FFF734FF07211120FFF730FF36
:1042900000211220FFF72CFF00211320FFF728FF39
:1042A00000210720FFF724FF41F290611020FFF763
:1042B0001FFF40F227211120FFF71AFF642000F0B2
:1042C000EBFC9D211220FFF713FF642000F0E4FCBB
:1042D0004FF4C8511320FFF70BFF642000F0DCFC03
:1042E00025212920FFF704FF0D212B20FFF700FFD8
:1042F00007213020FFF7FCFE40F203313120FFF7A9
:10430000F7FE03213220FFF7F3FE40F206213520AD
:10431000FFF7EEFE08213620FFF7EAFE40F20641E5
:104320003720FFF7E5FE4FF441713820FFF7E0FE3C
:1043300007213920FFF7DCFE40F202613C20FFF745
:10434000D7FE08213D20FFF7D3FE00215020FFF7C4
:10435000CFFEEF215120FFF7CBFE00215220FFF7C7
:10436000C7FE40F23F115320FFF7C2FE4FF4274132
:104370006020FFF7BDFE01216120FFF7B9FE00219B
:104380006A20FFF7B5FE00218020FFF7B1FE002173
:104390008120FFF7ADFE00218220FFF7A9FE00215A
:1043A0008320FFF7A5FE00218420FFF7A1FE002156
:1043B0008520FFF79DFE10219020FFF799FE4FF416
:1043C000C0619220FFF794FE40F233110720FFF7FF
:1043D0008FFE22210020FFF78BFE10BD22204FF020
:1043E000D8410880704770B5044600250021084672
:1043F00002F0E5FBFFF7F2FF00BF03E04FF0D8400B
:1044000044806D1CB5F5963FF8D370BD4FF0D84190
:104410004880704770B504460D461646B4F5A07F37
:1044200001DCF02D00DD70BD2946204602F0C7FBFF
:1044300022204FF0D84108800846468000BFF2E7AE
:1044400022204FF0D84210801046418840887047A3
:1044500030B5014601F01F04C1F34513CA0AE50255
:1044600005EB43151544A8B230BD70B504460D46A2
:104470002946204602F0A3FB48480088A0F5EE41FB
:10448000833902D1FFF7DCFF70BDFFF7D9FF064685
:10449000FFF7DEFFF8E72DE9FF4F85B081468A463A
:1044A0000020039083460798A0EB09050898A0EB2D
:1044B0000A06CDF80890CDF804A0002D01DD0127F3
:1044C00005E00DB9002702E04FF0FF376D42002EE6
:1044D00002DD4FF0010806E016B94FF0000802E0D7
:1044E0004FF0FF387642B54201DD2C4600E03446FD
:1044F000002004901EE0019A91B2029A90B2129AA2
:10450000FFF788FF039828440390B3440398A04220
:1045100005DD0398001B0390029838440290A345E0
:1045200004DDABEB040B0198404401900498401C5F
:1045300080B20490611C04988842DCDD09B0BDE8BB
:10454000F08F2DE9F84305460E4617469846089C1D
:1045500033463A46314628460094FFF79CFF4346CF
:104560002A46314628460094FFF795FF43463A46CF
:10457000414628460094FFF78EFF43463A463146AF
:1045800038460094FFF787FFBDE8F8830014014028
:1045900000180140001C014000200140B200002032
:1045A0002DE9F04706460F4690469A4600244546B8
:1045B0000320A0EB480952E03A1B91B2721B90B263
:1045C0005246FFF727FF3A1B91B2721990B252463A
:1045D000FFF720FF7A1991B2321B90B25246FFF7D3
:1045E00019FF3A1B91B2721B90B25246FFF712FFAD
:1045F0007A1B91B2321B90B25246FFF70BFF3A1969
:1046000091B2721990B25246FFF704FF7A1B91B231
:10461000321990B25246FFF7FDFE7A1991B2321963
:1046200090B25246FFF7F6FE3A1991B2721B90B261
:104630005246FFF7EFFE641CB9F1000F03DAA00049
:10464000801D814404E0601B80000A3081446D1E9F
:104650007A1991B2321990B25246FFF7DBFEAC42A2
:10466000AADDBDE8F0872DE9F84F04460E4617464F
:104670009846DDF828A0381B401C80B20090A8EBBB
:104680000600401C1FFA80FB002515E0611988B266
:10469000314602F094FAFFF7A1FE4FF0000907E05F
:1046A0004FF0D840A0F802A009F101001FFA80F9EC
:1046B000D945F5DB681C85B200988542E6DBBDE88C
:1046C000F88FF8B504460D461646002E7FD105F149
:1046D0000A0291B204F10A0290B200230A22FFF703
:1046E0005FFF05F10A0291B204F13C0290B200238F
:1046F0000A22FFF755FF05F1280291B204F10A02E0
:1047000090B200230A22FFF74BFF05F1280291B275
:1047100004F13C0290B200230A22FFF741FF00207F
:1047200004F13C018AB23239009088B22B46294606
:10473000FFF7B1FE002005F13207BBB204F13C07E0
:10474000BAB205F13207B9B204F10A070090B8B263
:10475000FFF7A1FE0020009005F1280083B21E386B
:1047600081B222462046FFF796FE002005F1280779
:10477000BBB204F14607BAB205F10A07B9B204F1B7
:1047800046070090B8B2FFF786FE4FF6FF7005F1BE
:104790003107BBB204F13B07BAB26F1CB9B204F1E6
:1047A0000B070090B8B2FFF75EFF4FF6FF7005F100
:1047B0002707BBB204F14507BAB205F10B07B9B23E
:1047C000671C0090B8B2FFF74EFF05E0FFE7012E2F
:1047D00002D0022E00D000BFF8BDF8B504460D4649
:1047E000164604F10C018AB2183988B22B462946C4
:1047F0000096FFF750FE05F10C0083B2183881B225
:10480000224620460096FFF746FE334608222946F8
:104810002046FFF7C5FEF8BD2DE9F84F04460D46CA
:1048200016469846AB460C200090203E002732E00A
:1048300006EB46005C4901EB800010F807904FF052
:10484000000A22E019F0800F04D042462946204693
:10485000FFF7E0FD4FEA49604FEA1069681C85B236
:10486000B4F5A07F01DBBDE8F88FA5EB0B000C28A9
:1048700007D15D46601C84B2B4F5A07F00DBF2E78F
:1048800006E00AF1010000F0FF0ABAF1080FD9DBD7
:1048900000BF781CC7B200988742C9DB00BFE2E7BF
:1048A0002DE9F047054688461446994600262F46CE
:1048B00009E022784B4641463846FFF7ADFFB81D68
:1048C00087B2641C761C207808B1012000E000202B
:1048D000782E01D2012100E000210842E9D1BDE893
:1048E000F087FEB504460D4616461F460020009090
:1048F0000190029032462DA1684602F027F83B460F
:104900006A4629462046FFF7CBFFFEBD10B502469A
:10491000002105E032F8023B4FF0D8446380491C87
:10492000B1F5963FF6D310BD08B54FF6FF70FFF70F
:104930005AFD1F20C82378228C2100902820FFF7E1
:1049400000FE1F20C92379228B2100902720FFF72A
:10495000F8FD002316A2A5214120FFF7A1FF1F208B
:10496000C8234FF48C728C2100901846FFF7E9FDA4
:104970001F20C92340F219128B210090C720FFF796
:10498000E0FD00230CA2A521DC20FFF789FF002316
:104990000CA20A211420FFF783FF00230DA20A2195
:1049A0007820FFF77DFF08BD52A2000825640000B3
:1049B000444143205570000044414320446F776ECA
:1049C000000000004441433A2020202020206D5662
:1049D000000000004144433A2020202020206D5652
:1049E0000000000008B501210420FDF7CDF80121E9
:1049F0001A48FCF7E6FE0120ADF8000028208DF8EB
:104A0000030069461648FCF70DFE08BD10B50446C4
:104A100014B10120134908701248007898B101219F
:104A20000F48FCF790FE01280DD10A2000F034F960
:104A300000200C49087001210948FCF784FE012878
:104A400009D1032010BD01210548FCF77CFE10B9F7
:104A50000120044908700020F4E700000002300043
:104A600000080140B40000202DE9F04107460D4642
:104A700016461C4601210846FDF779F83846FCF732
:104A8000AFF82F4804802F480560466010202D495C
:104A900088600846C46000200861802048610020CA
:104AA0008861C86108624FF48050486200208862C3
:104AB0003846FCF737F9BDE8F08110B5044600210F
:104AC0002046FCF75AF91E4801882046FCF76AF98F
:104AD00001212046FCF751F910BD2DE9F0410746B0
:104AE0000C4615461E4601210846FDF740F838469B
:104AF000FCF776F81348046045600020114988608F
:104B00000846C66000200861802048614000886136
:104B10008000C8612020086200024862002088628C
:104B20003846FCF7FFF8BDE8F08110B504460021D7
:104B30002046FCF722F901212046FCF71EF910BDA2
:104B4000B6000020C003002010B586B00446012145
:104B500044F20400FDF718F82C48FEF711F94FF461
:104B60000070ADF8140003208DF8160018208DF8A1
:104B7000170005A92648FCF755FD4FF48060ADF8F5
:104B8000140004208DF8170005A92148FCF74AFD00
:104B900025208DF8000003208DF801008DF802001B
:104BA00001208DF803006846FBF7DFFC019400202C
:104BB000ADF80800ADF80A00ADF80C00ADF8100033
:104BC0000C20ADF80E0001A91048FEF71CF90122D7
:104BD00040F225510D48FEF7AEF901210B48FEF7D2
:104BE0009EF9012280210948FEF7CAF906B010BDDE
:104BF00010B5002440F225510448FEF781FA18B19F
:104C00000248FEF7FDF9C4B210BD000000380140B3
:104C10000008014010B54FF4A060FBF7A1FC10BDE7
:104C200010B56FF00400FBF7EBFC2D4800682D4930
:104C3000B0FBF1F02C4908700846007800EB400109
:104C4000C1EBC0104FF6FF7101EAC0002749088090
:104C500010BD0146244A12784A434FF0E0235A61BE
:104C600000229A611A46126942F001021A6100BFDD
:104C70004FF0E022106910F0010F02D010F4803FD5
:104C8000F6D04FF0E022126922F001024FF0E0234B
:104C90001A6100229A6170470146144A12884A43F9
:104CA0004FF0E0235A6100229A611A46126942F0DD
:104CB00001021A6100BF4FF0E022106910F0010FED
:104CC00002D010F4803FF6D04FF0E022126922F0BB
:104CD00001024FF0E0231A6100229A617047000040
:104CE0005000002000127A00B8000020BA00002016
:104CF00010B504462CB90120FE490968088200203D
:104D000010BDFD49096808688047FA4800680A3004
:104D1000F6E710B5F7480068C078F8494978884246
:104D200013DCF4480068807878B9F248006880881D
:104D300058B9F0480068C078EE4909688872EE49B1
:104D4000096848688047002010BD0220FCE710B5C4
:104D500004462CB90120E74909680882002010BDEB
:104D6000E549096888688047E24800680C30F6E742
:104D700010B5E04B1B68D978DE4B1B685879E04BC7
:104D80001B689A6990470446DA480068807AE8B15F
:104D90003CB9D8480068007918B9D64800688078CE
:104DA00008B1022010BD8CB9D3490968C868804792
:104DB000D04800684079CF490968C872CD4800687A
:104DC000C078CC49096808730020EBE70220E9E7C6
:104DD00010B504462CB90220C64909680882002093
:104DE00010BD0020C7490880C2480068007810F054
:104DF0007F0F23D1BF490968487A10F0200F06D0F1
:104E0000C049097841F00201BE4A117005E0BD4970
:104E1000097801F0FD01BB4A117010F0400F06D077
:104E2000B849097841F00101B64A117005E0B54969
:104E3000097801F0FE01B34A117036E0AD48006810
:104E4000007800F07F00012801D1AE48C8E7A948EA
:104E50000068007800F07F00022824D1A54A12687B
:104E6000517901F00F0011F0800F0DD0A64A52F8D1
:104E7000202002F03002102A14D1A24A127842F007
:104E80000102A04B1A700DE09F4A52F8202002F454
:104E90004052B2F5805F05D19A4A127842F0010281
:104EA000984B1A7001E000209AE793490968086955
:104EB0008047944894E72DE9F0478E4800680078D1
:104EC00000F07F08B8F1000F0AD18A480068407AE4
:104ED00000F0DF008749096848720020BDE8F087CC
:104EE000B8F1020F7ED183480068408818B9814824
:104EF0000068007908B10220F0E7DFF800927D48F1
:104F00000068477927F080052C467A480068407988
:104F100010F0800F05D07C4850F8240000F03006D7
:104F200004E0794850F8240000F4405699F8000055
:104F3000A84204D91EB16F480068807A08B90220DF
:104F4000CCE717F0800F0ED06F4850F8240000F027
:104F5000300010283FD1E0B200F097FFE0B23021DE
:104F600000F03FFE37E0684850F8240000F440505D
:104F7000B0F5805F2FD1C4B9644A92F82C10E0B22A
:104F800001F00AF8604951F824104BF68F7201EADB
:104F9000020080F4805080F4005040F4004141F061
:104FA0008001594A42F8241015E0E0B200F057FFA2
:104FB000554951F824104BF68F7201EA020080F433
:104FC000805080F4005040F4004141F080014E4A8E
:104FD00042F8241000BF484909684869804700200A
:104FE0007CE7FFE700BF022078E72DE9F041414868
:104FF0000068467926F080073C463E4800684079C4
:1050000010F0800F05D0404850F8240000F0300523
:1050100004E03D4850F8240000F44055374800783B
:10502000A04208D933480068408820B91DB13148F2
:105030000068807A10B90220BDE8F08116F0800F78
:1050400010D0314951F8241048F6BF7201EA02002D
:1050500080F0100040F4004141F080012A4A42F8FB
:10506000241010E0284951F824104BF68F7201EA01
:10507000020080F4805040F4004141F08001224A57
:1050800042F8241000BF1C49096888698047002045
:10509000D2E710B517480068407A40F02000154963
:1050A0000968487214490968C8698047002010BD22
:1050B00010B502460F480068438A32B98888C01A82
:1050C0000C4C24682082002010BD08681844FBE7BF
:1050D0002DE9F0410748006800F110042688A06817
:1050E00038B336B3A588B54200D93546A8B2A16811
:1050F00088470DE0C4000020D000002024010020DB
:10510000C8000020BE000020005C004028010020F4
:1051100007462088401B208060882844608000204B
:1051200000F00CFF8046AAB24146384600F0FAFC77
:1051300000BF208850B14FF44050FA490880002148
:10514000084600F007FF3020F74908802088A18832
:10515000884204DB0320F5490968087218E02088BA
:10516000002804DD0520F1490968087210E0208854
:1051700070B90620ED49096808720021EC48006802
:1051800080B2801CEB4A42F810103020E6490880BB
:10519000BDE8F0812DE9F047E448006800F1100512
:1051A0002E88E2480068077AD6B9042F18D1E24861
:1051B000007801280FD10021DD48006880B2801CF2
:1051C000DC4A42F810103020D749088000BF002088
:1051D000D949087003E007271020D349088027E049
:1051E000AC88A64201D8042000E002200746B44261
:1051F00000D93446A0B2A96888478046002000F054
:105200008DFE8146A2B24946404600F071FCA1B233
:10521000002000F09FFE2888001B2880688820441A
:1052200068803020C04908800002BE49088000BF65
:10523000BE4909680F72BDE8F08770B50226BB4809
:1052400000684478B9480068007810F07F0F44D1B6
:10525000092C03D1FFF75DFD06465FE0052C14D154
:10526000B2480068C0787F280BDCB04800688078BE
:1052700038B9AE480068808818B9AC480068807AB0
:1052800008B1082565E0002648E0032C0ED1A748A8
:105290000068C078012807D1A4480068808818B940
:1052A000FFF7F7FE064639E0022637E0012C35D13C
:1052B0009E480068C07801280DD19C48006880880D
:1052C00048B99A480068407A10F0200F03D0FFF7E1
:1052D000F2FD064622E0022620E0944800680078AD
:1052E00000F07F00012805D10B2C17D1FFF740FDFE
:1052F000064613E08D480068007800F07F00022821
:105300000BD1012C03D1FFF7D6FD064606E0032C96
:1053100004D1FFF76AFE064600E002264EB1E0B275
:10532000864A1268516988470646032E01D109252D
:105330000FE00EB108250CE0062500217C4800682E
:1053400080B2801C7B4A42F81010302076490880D9
:1053500000BF764909680D7270BD2DE9F05F734892
:10536000006845780027BA46062D1AD16F480068B4
:10537000007810F07F0F13D16C49096888780128F4
:1053800003D16E490968CF690AE0022803D16B494D
:1053900009680F6A04E0032802D1684909684F6A66
:1053A00097E0002D65D1614800684088002860D1F1
:1053B0005E480068C08802285BD15C4800680079BC
:1053C000002856D159480068007810F07F0F06D1A8
:1053D00056480068808810B9AFF20B6779E05348EF
:1053E0000068007800F07F00012811D14F4909685A
:1053F0004879524909688A6900219047002868D194
:105400004A480068807A002863D0AFF23B6760E0CA
:1054100046480068007800F07F00022859D14348D0
:105420000068407900F00F0640480068407900F0BD
:1054300070093E480068407910F0800F06D03C4863
:10544000503850F8260000F0300805E03848503851
:1054500050F8260000F4405839480078B04238D956
:10546000B9F1000F35D1B8F1000F32D0AFF29F671C
:105470002FE0082D08D12D480068007810F07F0F2C
:1054800027D1AFF2937724E00A2D22D12748006874
:10549000007800F07F0001281BD124480068807A42
:1054A000B8B122480068408898B92048006800795F
:1054B00078B91E480068C08801280AD11B490968CC
:1054C00048791E4909688A690021904708B9AFF2F6
:1054D000817757B115480068A0F812A013480068FA
:1054E00087610020B84700240FE0104A1268507806
:1054F000124A1268116988470446032C05D1092015
:105500000A4909680872BDE8F09F08480068008AE7
:10551000A0F57F41FF3915D10920044909680872B7
:10552000F1E70000D4000020D6000020C4000020D5
:10553000505C004000600040BC000020C80000201B
:1055400024010020022C03D09C480068008A20B966
:1055500008209A4909680872D5E7984800680078D9
:1055600010F0800F3BD095480068B0F806B0934823
:105570000068008A584504D990490968A1F810B01C
:1055800023E08E480068008A8C490968C9888842EF
:105590001BDA8A480068008A8949096891F82C104A
:1055A000884203DA0020874908700EE083480068CB
:1055B000008A8349096891F82C1090FBF1F201FBF5
:1055C000120010B901207F4908707D48006890F8EA
:1055D0002C107A4800688182FFF7DCFD06E003208A
:1055E00076490968087200037749088000BF8AE796
:1055F00010B5764890F82C10002000F0CDFC6F48D4
:105600000068007A082805D140026F490880102000
:105610006F49088069480068007A092801D1012093
:1056200010BD0020FCE738B501246A48006880B24C
:10563000001D694931F8100080B201EB4000009074
:105640005E480068007A092832D0009800785B49EB
:10565000096808700098401C00900098007857492D
:10566000096848700098401C0090009800EB4400C6
:105670000090009931F8020B009100F02BFE4F4989
:1056800009684880009800EB44000090009931F8C8
:10569000020B009100F01EFE4849096888800098BE
:1056A00000EB440000900098008844490968C880D5
:1056B000012042490968087240480068C08810B952
:1056C000FFF7BBFD01E0FFF748FEFFF791FF38BD94
:1056D00030B50146414B1A78002012E0C3B23D4C70
:1056E000503C54F8233048F68F74234048F280042D
:1056F0002343C4B22343C4B2364D503D45F8243051
:10570000401C9042EAD341F08003324C241F2360B6
:1057100030BD10B529480068047A022C01D0042C51
:1057200005D1FFF737FD25480068047A1CE0062CF8
:1057300019D122480068407805280ED11F4800681A
:10574000007810F07F0F08D11C490968C878FFF76E
:10575000BFFF23490968086A8047194909688868B2
:105760008047082400E00824144909680C72FFF7F8
:105770003FFF10BD10B511480068047A022C01D01B
:10578000042C01D1082412E0032C01D0052C05D1F2
:10579000FFF79EFC09480068047A08E0072C05D151
:1057A00007490968C8688047082400E008240349BD
:1057B00009680C72FFF71CFF10BD7047C400002081
:1057C000C8000020BC000020D400002028010020D8
:1057D000D6000020505C0040006000402401002002
:1057E000D000002010B50848084908600220096868
:1057F00008720748074908600748084908600549D2
:1058000009680868804710BDEC030020C400002030
:1058100028010020C800002058010020D0000020EE
:1058200010B5002404E1AC48008800F00F00AB493B
:1058300008700846007800287ED1A9480068A94968
:1058400008800846008800F03000A7490880A54875
:10585000008800F44050A3490880A14909684BF62C
:10586000BF7201EA020080F4005080F0200040F492
:10587000004141F080019A4A11609748008810F079
:10588000100F32D11046006848F60F7108401146DB
:105890000860FFF73EFF924909684BF6BF7201EAC4
:1058A00002009049098811F4805F01D080F4805093
:1058B0008C49098811F4005F01D080F400508A49B6
:1058C000098811F0100F01D080F010008649098876
:1058D00011F0200F01D080F0200081B241F400418E
:1058E00041F080017E4A116010BD7D48006884B29D
:1058F00014F4006F36D07A480068C0F30E0048F602
:105900008F71084076490860FFF78DFE7449096879
:105910004BF6BF7201EA02007249098811F4805FF8
:1059200001D080F480506F49098811F4005F01D0E4
:1059300080F400506C4900E04CE0098811F0100F31
:1059400001D080F010006849098811F0200F01D0C3
:1059500080F0200081B241F4004141F08001604AB2
:105960001160C1E714F4004F62D05D480068C0F3D5
:105970000E0048F68F71084059490860FFF7FAFE9B
:10598000574909684BF6BF7201EA02005549098878
:1059900011F4805F01D080F480505249098811F4DD
:1059A000005F01D080F400504F49098811F0100FBA
:1059B00001D080F010004C49098811F0200F01D06F
:1059C00080F0200081B241F4004141F08001444A5E
:1059D000116089E741480078414951F8200084B2BC
:1059E00014F4004F14D03D48007851F82000C0F363
:1059F0000E0048F68F71084038490978384A42F855
:105A0000210036490978491E384A52F8210080475A
:105A100014F0800F0CD031480078314951F8200043
:105A200048F60F7108402D4909782D4A42F82100A7
:105A30002B484430006880B22749088010F4004F9A
:105A40007FF4F1AE00BF4FE710B5002439E047F610
:105A5000FF702349443108601F48008800F00F00A0
:105A60001E490870084600781D4951F8200084B28C
:105A700014F4004F15D01948007851F82000C0F3F5
:105A80000E0048F68F71084014490978144A42F80C
:105A9000210012490978491E144A52F82100804712
:105AA0000FE014F0800F0CD00C4800780C4951F82E
:105AB000200048F60F71084008490978084A42F862
:105AC000210007484430006880B20349088010F480
:105AD000004FBCD110BD0000FC000020C000002021
